:020000040000fa
:080000000002040000000000f2
:020000040000fa
:04000800de04000012
:020000040000fa
:04000c00e604000006
:020000040000fa
:04001000ee040000fa
:020000040000fa
:04001400f6040000ee
:020000040000fa
:04001800fe040000e2
:020000040000fa
:04001c00de040000fe
:020000040000fa
:04002000de040000fa
:020000040000fa
:04002400de040000f6
:020000040000fa
:04002800de040000f2
:020000040000fa
:04002c00de040000ee
:020000040000fa
:04003000de040000ea
:020000040000fa
:04003400de040000e6
:020000040000fa
:04003800de040000e2
:020000040000fa
:04003c00de040000de
:020000040000fa
:04004000de040000da
:020000040000fa
:040044009004000024
:020000040000fa
:04004800de030000d3
:020000040000fa
:04004c00de040000ce
:020000040000fa
:04005000de040000ca
:020000040000fa
:040054005c05000047
:020000040000fa
:040058000605000099
:020000040000fa
:04005c00de040000be
:020000040000fa
:04006000de040000ba
:020000040000fa
:04006400de040000b6
:020000040000fa
:04006800de040000b2
:020000040000fa
:04006c00de040000ae
:020000040000fa
:04007000de040000aa
:020000040000fa
:040074000c04000078
:020000040000fa
:040078007e04000002
:020000040000fa
:04007c00de0400009e
:020000040000fa
:04008000de0400009a
:020000040000fa
:04008400de04000096
:020000040000fa
:04008800de04000092
:020000040000fa
:04008c00de0400008e
:020000040000fa
:04009000de0400008a
:020000040000fa
:04009400aa040000ba
:020000040000fa
:04009800c40400009c
:020000040000fa
:04009c0084040000d8
:020000040000fa
:0400a0000206000054
:020000040000fa
:0400a400ac050000a7
:020000040000fa
:0400a800de04000072
:020000040000fa
:0400ac00de0400006e
:020000040000fa
:0400b000de0400006a
:020000040000fa
:0400b400de04000066
:020000040000fa
:0400b800de04000062
:020000040000fa
:0400bc00de0400005e
:020000040000fa
:0400c000de0400005a
:020000040000fa
:0400c400de04000056
:020000040000fa
:0400c800de04000052
:020000040000fa
:0400cc00de0400004e
:020000040000fa
:0400d000de0400004a
:020000040000fa
:0400d400de04000046
:020000040000fa
:0400d800de04000042
:020000040000fa
:0400dc00de0400003e
:020000040000fa
:0400e000de0400003a
:020000040000fa
:0400e400de04000036
:020000040000fa
:0400e800de04000032
:020000040000fa
:0400ec00de0400002e
:020000040000fa
:0400f000de0400002a
:020000040000fa
:0400f400de04000026
:020000040000fa
:0400f800de04000022
:020000040000fa
:0400fc008a04000072
:020000040000fa
:04010000de04000019
:020000040000fa
:04010400de04000015
:020000040000fa
:04010800de04000011
:020000040000fa
:04010c00de0400000d
:020000040000fa
:04011000de04000009
:020000040000fa
:04011400de04000005
:020000040000fa
:04011800de04000001
:020000040000fa
:04011c00de040000fd
:020000040000fa
:04012000de040000f9
:020000040000fa
:04012400de040000f5
:020000040000fa
:04012800de040000f1
:020000040000fa
:04012c009605000034
:020000040000fa
:040130003a0600008b
:020000040000fa
:04013400de040000e5
:020000040000fa
:04013800de040000e1
:020000040000fa
:04013c00de040000dd
:020000040000fa
:04014000de040000d9
:020000040000fa
:04014400de040000d5
:020000040000fa
:04014800de040000d1
:020000040000fa
:04014c00de040000cd
:020000040000fa
:04015000de040000c9
:020000040000fa
:04015400de040000c5
:020000040000fa
:04015800de040000c1
:020000040000fa
:04015c00de040000bd
:020000040000fa
:04016000de040000b9
:020000040000fa
:04016400de040000b5
:020000040000fa
:04016800de040000b1
:020000040000fa
:04016c00de040000ad
:020000040000fa
:04017000de040000a9
:020000040000fa
:04017400de040000a5
:020000040000fa
:04017800500600002d
:020000040000fa
:04017c00de0400009d
:020000040000fa
:04018000de04000099
:020000040000fa
:04018400de04000095
:020000040000fa
:04018800de04000091
:020000040000fa
:04018c00de0400008d
:020000040000fa
:04019000de04000089
:020000040000fa
:04019400de04000085
:020000040000fa
:04019800de04000081
:020000040000fa
:04019c00de0400007d
:020000040000fa
:0401a000de04000079
:020000040000fa
:0401a400de04000075
:020000040000fa
:0401a800de04000071
:020000040000fa
:0401ac00de0400006d
:020000040000fa
:0401b000de04000069
:020000040000fa
:0401b400de04000065
:020000040000fa
:0401b80050030000f0
:020000040000fa
:04020800de04000010
:020000040000fa
:04020c00e604000004
:020000040000fa
:04021000ee040000f8
:020000040000fa
:04021400f6040000ec
:020000040000fa
:04021800fe040000e0
:020000040000fa
:04021c00de040000fc
:020000040000fa
:04022000de040000f8
:020000040000fa
:04022400de040000f4
:020000040000fa
:04022800de040000f0
:020000040000fa
:04022c00de040000ec
:020000040000fa
:04023000de040000e8
:020000040000fa
:04023400de040000e4
:020000040000fa
:04023800de040000e0
:020000040000fa
:04023c00de040000dc
:020000040000fa
:04024000de040000d8
:020000040000fa
:040244009004000022
:020000040000fa
:04024800de030000d1
:020000040000fa
:04024c00de040000cc
:020000040000fa
:04025000de040000c8
:020000040000fa
:040254005c05000045
:020000040000fa
:040258000605000097
:020000040000fa
:04025c00de040000bc
:020000040000fa
:04026000de040000b8
:020000040000fa
:04026400de040000b4
:020000040000fa
:04026800de040000b0
:020000040000fa
:04026c00de040000ac
:020000040000fa
:04027000de040000a8
:020000040000fa
:040274000c04000076
:020000040000fa
:040278007e04000000
:020000040000fa
:04027c00de0400009c
:020000040000fa
:04028000de04000098
:020000040000fa
:04028400de04000094
:020000040000fa
:04028800de04000090
:020000040000fa
:04028c00de0400008c
:020000040000fa
:04029000de04000088
:020000040000fa
:04029400aa040000b8
:020000040000fa
:04029800c40400009a
:020000040000fa
:04029c0084040000d6
:020000040000fa
:0402a0000206000052
:020000040000fa
:0402a400ac050000a5
:020000040000fa
:0402a800de04000070
:020000040000fa
:0402ac00de0400006c
:020000040000fa
:0402b000de04000068
:020000040000fa
:0402b400de04000064
:020000040000fa
:0402b800de04000060
:020000040000fa
:0402bc00de0400005c
:020000040000fa
:0402c000de04000058
:020000040000fa
:0402c400de04000054
:020000040000fa
:0402c800de04000050
:020000040000fa
:0402cc00de0400004c
:020000040000fa
:0402d000de04000048
:020000040000fa
:0402d400de04000044
:020000040000fa
:0402d800de04000040
:020000040000fa
:0402dc00de0400003c
:020000040000fa
:0402e000de04000038
:020000040000fa
:0402e400de04000034
:020000040000fa
:0402e800de04000030
:020000040000fa
:0402ec00de0400002c
:020000040000fa
:0402f000de04000028
:020000040000fa
:0402f400de04000024
:020000040000fa
:0402f800de04000020
:020000040000fa
:0402fc008a04000070
:020000040000fa
:04030000de04000017
:020000040000fa
:04030400de04000013
:020000040000fa
:04030800de0400000f
:020000040000fa
:04030c00de0400000b
:020000040000fa
:04031000de04000007
:020000040000fa
:04031400de04000003
:020000040000fa
:04031800de040000ff
:020000040000fa
:04031c00de040000fb
:020000040000fa
:04032000de040000f7
:020000040000fa
:04032400de040000f3
:020000040000fa
:04032800de040000ef
:020000040000fa
:04032c009605000032
:020000040000fa
:040330003a06000089
:020000040000fa
:04033400de040000e3
:020000040000fa
:04033800de040000df
:020000040000fa
:04033c00de040000db
:020000040000fa
:04034000de040000d7
:020000040000fa
:04034400de040000d3
:020000040000fa
:04034800de040000cf
:020000040000fa
:04034c00de040000cb
:020000040000fa
:04035000de040000c7
:020000040000fa
:04035400de040000c3
:020000040000fa
:04035800de040000bf
:020000040000fa
:04035c00de040000bb
:020000040000fa
:04036000de040000b7
:020000040000fa
:04036400de040000b3
:020000040000fa
:04036800de040000af
:020000040000fa
:04036c00de040000ab
:020000040000fa
:04037000de040000a7
:020000040000fa
:04037400de040000a3
:020000040000fa
:04037800500600002b
:020000040000fa
:04037c00de0400009b
:020000040000fa
:04038000de04000097
:020000040000fa
:04038400de04000093
:020000040000fa
:04038800de0400008f
:020000040000fa
:04038c00de0400008b
:020000040000fa
:04039000de04000087
:020000040000fa
:04039400de04000083
:020000040000fa
:04039800de0400007f
:020000040000fa
:04039c00de0400007b
:020000040000fa
:0403a000de04000077
:020000040000fa
:0403a400de04000073
:020000040000fa
:0403a800de0400006f
:020000040000fa
:0403ac00de0400006b
:020000040000fa
:0403b000de04000067
:020000040000fa
:0403b400de04000063
:020000040000fa
:0403b80050030000ee
:020000040000fa
:100400004f7522000eaf24000e018800000000008e
:10041000000020000000e000020032000001200087
:1004200020028800140007008c0307000000e00091
:1004300003003a00a03e2600110020000200370011
:100440000000200001002000810f70000100320038
:1004500014000700000020000000e000020032004d
:1004600000000200000000003e4402000100000005
:100470000040da000000fe004440a900609e270012
:100480000000e000030032001020200090018800ee
:100490004440a800000006008a1f78008b1f7800e7
:1004a00000000600a1028800800478000000eb0034
:1004b0001f003700e284440054a0b4009905ba003c
:1004c000e284440054a0b4009906ba00e2844400d7
:1004d00054a0b4000006eb00476fde00fd07b20039
:1004e000ae018800636ce10003003a00eaff0700f8
:1004f0000000eb000e003700606ce10008003a00dd
:10050000004deb000a05e800020039003420ec0041
:100510000af0a0008b05e900f9ff3e000400370057
:100520006168e100010032000086eb000b0007006b
:1005300019c7ba001905ba000e04e00003003a001a
:100540000a00e000dbff3a0000000600fe07b200f0
:10055000ae0288008a047800f5ff37000cd0a300b3
:10056000e20f4d001c00390089027800354dba00b9
:100570000a05e800020039003420ec000af0a0006f
:100580008b05e9000f003200254dba000a05e8008e
:10059000020039003420ec000af0a0008b05e900cd
:1005a000080032000c00e0000600320015cdba0051
:1005b0000a05e800020039003420ec000af0a0002f
:1005c0008b05e9008984e80054a0b4000b00e0002a
:1005d000e2ff3a00000006009902ba00055d7800cb
:1005e0008b05e900f7ff3200c82ade00055d7800c0
:1005f0008b05e900f3ff32000c00e000f1ff320050
:1006000019ddba00eeff37005e4c04000100000067
:10061000404c040001000000304c040001000000c8
:100620000c710400000000001c70040000000000b9
:100630003c70040000000000306f04000000000067
:10064000d061040001000000b2610400010000005c
:10065000de7e040000000000fe53040001000000e4
:100660000a53040001000000b85204000100000019
:10067000fe59040001000000e059040001000000e0
:10068000fc41040001000000206a04000100000099
:100690008c6a040001000000fe420400010000001a
:1006a00000a0fe000a00fa009080a90050388000e7
:1006b000700060000000e0003d003200e6c8bf00ae
:1006c0000004e0003800320020478000114780001d
:1006d000f2468000020f780011079800200798006a
:1006e0009e009000310798001e0078000000e00096
:1006f0002b0032009e0090002e0090008080400071
:1007000000102000808f500025003e003107a80017
:100710008139800000002400008060000000e000bb
:10072000fbff3a000000eb0040079800170037007d
:100730003e0090000040780030e7b7003e00900097
:10074000000040001e0040009080fb001040900020
:100750000080fb004800dd000080700090398800b8
:100760003e0090000000e8003007980081398000ca
:1007700000002400008060000000e000fbff3a0061
:100780004e0090000000e80040079800ae00900086
:100790004e009000808f5000e5ff3e003107a90019
:1007a000de28ef00e668ef000a87a9000887a900a5
:1007b0000080fa000080fe000040060000a0fe005d
:1007c0003200f8003400f800881f7800180020007c
:1007d000a801880018202000980188004f047800a4
:1007e0000000fa00a04c8000b14c80006100400085
:1007f000e0804800a04c8800b14c88000a21ef003e
:100800008500a9000080fa003400f9003200f900e8
:100810000080fe000040060000a0fe003200f8004c
:100820003400f800881f780018002000a801880014
:1008300018202000980188004f0478000200fa0078
:100840000040eb00004f7800501680004a00de00a8
:10085000614060000080fb0000f0a7000000ea009b
:100860000000ea004f00de00004f7800dd62a900c2
:100870001e4078000004e0001300320099c9bf0058
:100880000004a2000004e00016003200cd62a900be
:100890009b69ef009500a900a080a90005e7a900c9
:1008a000dce2a900f442a900f462a9009bc9bf00e0
:1008b000c2e9b700c029ef00500020007044880052
:1008c0000040fe000700370099c9bf000004a200e5
:1008d0000004e0000300320010002000004e8800f9
:1008e0000000fe008660a9000080fa003400f900d4
:1008f0003200f9000080fe00004006000000fa000f
:100900000080fa00004006000000fa000080fa00b3
:10091000004006000000fa000080fa0000400600d7
:100920003200f8003400f800881f7800180020001a
:10093000a801880018202000980188004f04780042
:100940000000fa000080fa003400f9003200f900db
:10095000004006003200f8003400f800881f7800dc
:1009600018002000a80188001820200098018800a5
:100970004f0478000000fa000080fa003400f9000b
:100980003200f900004006003200f8003400f800a0
:10099000881f780018002000a80188001820200077
:1009a000980188004f0478000000fa000080fa00e7
:1009b0003400f9003200f900004006000000fa009f
:1009c0000000fe000080fa00004006000000fa006f
:1009d0008020a9000080fa00004006000000fa0014
:1009e0008060a9000080fa00004006000000fa00c4
:1009f0008040a9000080fa00004006000000fa00d4
:100a00008080a9000080fa0000400600809fbe00a0
:100a1000821f78003200f8003400f8001000200037
:100a2000a001880010202000900188000000fa003a
:100a3000b1568000a0568000808f500002003a001e
:100a40009580a900160037008580a9000b003700ab
:100a5000a0568000f10f20008100600064814000fa
:100a600041ad200081004100914078008180fb0071
:100a7000211188000000e800a056880011118000b4
:100a800000202000008060000000e00004003a0028
:100a9000b1568000a0568000808f5000ecff3a00d5
:100aa0000080fa003400f9003200f9004f017800ac
:100ab0004f00be0000400600809fbe00821f7800ed
:100ac0000200fa001000370030118000004f78005b
:100ad000914e8000804e80008080500000102000e9
:100ae000808f500008003200904e8000f10f2000ef
:100af00001016000419d2000810041009e48780076
:100b00000000e800904e8800101180006100600035
:100b10000000e000ecff3a008560a9000080fa00c8
:100b20004f0178004f00be0000400600801f780093
:100b30000000fa0010118000620060000000e00078
:100b4000010032002222a9008c20a9000080fa00b6
:100b50004f00780000400600809fbe00821f780092
:100b60003200f8003400f80010002000a0018800d6
:100b700010202000900188000000fa00f15f800042
:100b8000e05f8000808f500002003a0097e0a900eb
:100b90001600370087e0a9000b003700e05f8000f7
:100ba000f10f20008100600064814000c1bf20007f
:100bb00081004100914078008180fb00a1118800f4
:100bc0000000e800e05f8800911180000020200014
:100bd000008060000000e00004003a00f15f800047
:100be000e05f8000808f5000ecff3a000080fa0048
:100bf0003400f9003200f9004f0178004f00be00c8
:100c000000400600809fbe00821f78000200fa00ac
:100c10000f003700d15e8000c05e800080805000f1
:100c200000022000808f500009003200b0118000c7
:100c3000004f7800d05e80007f016000c1bd2000c1
:100c4000810041009e4878000000e800d05e8800e6
:100c500090118000610060000000e000edff3a00ac
:100c600087c0a9000080fa004f0178004f00be0045
:100c700000400600801f78000000fa0090118000fc
:100c8000620060000000e000010032003222a90092
:100c90008c40a9000080fa004f0078000040060058
:100ca000809fbe00821f78000200fa00801380003f
:100cb000004f7800c1138000000220000080600017
:100cc0000000e0008e003a001e41780021932000d1
:100cd00082487800c0138000640060000000e000db
:100ce000850032002193200091407800f0c4b300c9
:100cf00080cf50000d003a0029c9bf000004a200b7
:100d00000004e00005003200700d20009013880000
:100d100010c0b30029e9b7007700370033c9bf001e
:100d20000080fb00901388007300370032c9bf00b9
:100d30008080fb00000f2000808060000008200001
:100d4000808f50005f003a002ac9bf000004a20053
:100d50000004e0001900320010c0b30034e9b7000d
:100d600035c9bf000080fb006193200091407800ee
:100d70000181fb006300b9000000780082004000a0
:100d8000a072210000804000104078000080fb002d
:100d90009013880036c9bf000080fb000000a2004d
:100da00000f0a7000000ea000000ea004f00de00ab
:100db0000040780036e9b7004f00370028c9bf006f
:100dc0000004e0002600320035c9bf000080fb00af
:100dd00071932000914078000181fb006300b9000d
:100de0000000780082004000c073210000804000b5
:100df000104078000080fb009013880037c9bf00c6
:100e0000e24f500005003a0035c9bf00e54f5000e1
:100e100002003a002869ef003700370037c9bf00e9
:100e2000e14f500004003e0037c9bf000040e80019
:100e300037e9b700300037003769ef0035c9bf0028
:100e4000e44f500004003e0035c9bf000040e800f8
:100e500035e9b700280037003569ef002600370074
:100e60002bc9bf000004e0001000320036c9bf00eb
:100e70000080fb00e1742100614078000080fb00ed
:100e80009013880036c9bf000080fb000000a2005c
:100e900000f0a7000000ea000000ea004f00de00ba
:100ea0000040780036e9b700130037003769ef00db
:100eb0003669ef003569ef00f00f200090138800cd
:100ec0000d003700219320009140780070c4b300da
:100ed00080cf500005003a00b2c9bf000080fb007f
:100ee000901388003169ef0003003700f00f2000f5
:100ef000901388003169ef007782a80099003700cd
:100f0000c0138000640060000000e00094003a001c
:100f10002193200091407800e0c4b30080cf5000be
:100f200048003a0010c0b300b5e9b70031c9bf00ae
:100f30000080fb00e20f500012003200e20f500070
:100f400005003c000000e00008003200e10f500006
:100f5000090032002f003700e30f5000120032006a
:100f6000e40f5000280032002a00370000722100f0
:100f70001e48780027003700107221001e487800b4
:100f8000240037001e80fb00670160001e80fb000c
:100f90004500de0080407800007221000000410022
:100fa000014878001b0037001e407800e14f4000e8
:100fb00004003a00507221008040eb0001487800a4
:100fc000080037001e80fb00670160001e80fb00e8
:100fd0004500de00804078000072210000004100e2
:100fe000014878001e80fb006100600000f0a7004f
:100ff0000000ea000000ea004f00de000040780038
:10100000b4e9b70003003700807221001e48780061
:101010000000000031c9bf00e44f500002003a0058
:101020003169ef000300370031c9bf000040e8001c
:1010300031e9b7001e4178003193200082487800e2
:1010400047003700219320009140780010c4b3007e
:1010500080cf500017003600219320009140780087
:10106000c0c4b30080cf500012003e002193200086
:1010700091407800c0c4b30080cf500003003a0014
:10108000607221001e48780008003700219320007c
:101090009140780060c4b30080cf500003003a0054
:1010a0001e417800219b2000824878003169ef00c2
:1010b0002b00370032c9bf008080fb00000f2000ea
:1010c0008080600000082000808f500024003a00db
:1010d00034c9bf000004e0001800320035c9bf0069
:1010e0000080fb006300b90080007800c07221001e
:1010f000008040001e48780035c9bf00e44f500012
:1011000008003e0030c9bf000004a2000004e00057
:101110000400320035c9bf000040e80035e9b700df
:101120000d0037003569ef0010c0b3002ae9b700a1
:101130003469ef003069ef00070037002bc9bf00aa
:101140000004e000040032001e417800c19220003b
:10115000824878002b69ef0020c0b30031e9b70066
:101160007782a8008e80a9000080fa004f017800e5
:101170004f00be0000400600889fbe00800478003b
:1011800090bd80000000e00004003a000e0007005f
:101190000084eb000000e0000800350098bd8000ee
:1011a0000900e000050032000900440006000700c5
:1011b0000000e00001003d000084eb000800780022
:1011c0004f04be0000000600800078000100e0002f
:1011d00003003a00407b210090bd8800000005001c
:1011e0000080eb0042752200828f500002003e001a
:1011f00091bd88000000eb00000006000a00fa0024
:10120000200798003107980042079800be00900020
:10121000010f78000000eb0010079800080037006d
:101220001e007800104078001e0fe80008720200cf
:10123000010000001e0090000000e8001007980068
:101240009e0090004e009000808f5000f4ff390007
:101250004e0090000080fa0000000600000005002b
:101260006022b800060220000000d0008180d20079
:101270000482d2008582d2000000a0000202520047
:1012800083825a00030031000202420083824a0036
:101290000000a1000603e900f3ff3a000000060089
:1012a000889fbe008a9fbe0030044200b0844a007e
:1012b00030054b0090854b006000b1000898be00df
:1012c0000a90be000440e10005c8e10006d0e1003c
:1012d00007d8e10002003100680040001008e80073
:1012e0004f05be004f04be0000000600889fbe00f0
:1012f0008a9fbe003004be002005be0004185400c2
:1013000005985c0006185d0007985d00110020003c
:101310000440e10005c8e10006d0e10007d8e10083
:10132000010039008000eb00108810004f05be005e
:101330004f04be00000006001200fa00889fbe00a5
:101340008a9fbe008c9fbe00e0b79f00f1b79f0050
:1013500082bf9f0093bf9f000605be000404be002d
:101360000000eb00d0b79f00c0b79f00b0b79f0050
:10137000a0b79f0090b79f00000678005fb197006c
:10138000cfb09700820141003fb097000200e0001b
:1013900004003d00370007007e805700c0ff0700b3
:1013a00003003700330007007e805700cfff07009f
:1013b000dfb697000d00e0000c0035006fb297001b
:1013c000ffb297000fbb97009fbb97001000200053
:1013d000010020006011b8000002720081827200da
:1013e00002037300838373001b0007000c06e800f0
:1013f00001042000810f5600e0ff3a000d00e000dc
:1014000004003d000802be000a03be007e805700b3
:10141000a3ff07005fa897000000e00005003a0066
:101420001fb29700afb297003fb39700cfb39700ba
:10143000090007006fb09700ffb097000fb9970041
:101440009fb997004f06be004f05be004f04be0077
:101450000080fa00000006000100070000000600fe
:10146000a4b79f00b5b79f00c6b79f00d7b79f002e
:10147000000006004f09de0082817100b3b79f00b3
:101480004f01de008180400082807000a1b79f0084
:101490008fb097004f09de0000004000020070008e
:1014a00090b79f007fa897004f01de008180400029
:1014b0008280700081b79f000d0007004f3ade0068
:1014c0000000400004007000f0af9f00080007001b
:1014d0000402420085824a0006034b0087834b00ca
:1014e000dfff07000802be000a03be00000006007e
:1014f0002fb29700bfb297004fb39700dfb39700aa
:1015000000000600881f780018002000881f78005f
:1015100089ff07008f87e9004f047800000006006c
:10152000801feb0084ff07008f87e90000000600a2
:10153000889fbe008a9fbe00e00f5000e08f5800d9
:10154000e00f5900e08f59000c003d006044b800e6
:101550006055b8000000540081805c0002015d000d
:1015600083815d00180020001500070008003d0081
:10157000180007000004eb00050037000004eb0032
:101580000f00070002003d001200070018002000b5
:10159000dcff07000800e000060032006022b8000f
:1015a0006033b8000000520081805a0002015b00e5
:1015b00083815b004f05be004f04be0000000600a3
:1015c000e00f5200e08f5a00e00f5b00e08f5b00fd
:1015d000000006006044b8006055b80004025400e2
:1015e00085825c0006035d0087835d0000000600c5
:1015f000889fbe008a9fbe008c1f7800e00f5000bd
:10160000e08f5800e00f5900e08f59000d003d00b9
:101610006044b8006055b8000000540081805c0050
:1016200002015d0083815d001c0020000820e100b4
:1016300009a8e1000ab0e1000bb8e1000d003d008f
:10164000080037000006eb00e00f5200e08f5a0060
:10165000e00f5b00e08f5b0006003d006044b800d7
:101660006055b8000402540085825c0006035d00ea
:1016700087835d00aaff07000c00e000060032002f
:101680006022b8006033b8000000520081805a0028
:1016900002015b0083815b004f0678004f05be00ae
:1016a0004f04be0000000600889fbe008a9fbe0057
:1016b0008c1f78000006eb00e00f5000e08f580010
:1016c000e00f5900e08f590007003d006044b8006a
:1016d0006055b8000000540081805c0002015d008c
:1016e00083815d001c002000e00f5200e08f5a0053
:1016f000e00f5b00e08f5b0007003d006044b80036
:101700006055b8000402540085825c0006035d0049
:1017100087835d000c00a2000c0007000c00e000b5
:10172000060032006022b8006033b80000005200aa
:1017300081805a0002015b0083815b004f067800c4
:101740004f05be004f04be0000000600889fbe008b
:101750008a9fbe008c9fbe000404b8000506b80036
:101760008904460060854e000606b8000a0546005a
:10177000e0854e000706b8008b054600040eb80051
:10178000890446000a854e00e0854d00050eb8002c
:101790000a0546008b854e00060eb8008b054600f4
:1017a0000416b8000a0546008b854e000516b800e1
:1017b0008b054600041eb8008b0546000800be00dd
:1017c0000a01be004f06be004f05be004f04be001a
:1017d000000006000c00fa00889fbe00000478009c
:1017e000f0ff2700d0bf9f008004eb0099bf9f004f
:1017f00088bf9f00a8bf9f00200c2000b0bf9f00a3
:1018000078815700cfb09700708057001000070014
:101810000fb89700094878008fb8970008805000eb
:101820004f04be000080fa0000000600d0019000c6
:10183000028151004240a9000300340010017800e9
:10184000014978000208e800010078000000060065
:10185000f6874700889fbe008a9fbe008c9fbe000f
:101860008e1f780000057800a1b79f00020778005e
:101870008004eb0090023700afb097008100e800d1
:10188000a1b79f0051c2b300814f500003003a003e
:10189000afb097000004eb0011003700ba009000d1
:1018a0000000fb000168a300070032000901780076
:1018b000800078000a007800dcff07000000e000ec
:1018c00005003a007c0237008a0078008602070093
:1018d000e10f4000780232008904e8007602370008
:1018e0000100780031417800d3c2b300834f51002a
:1018f0000c00320007003c00edc15100834f510045
:101900000a003200ebc14100834f51000d003a0044
:101910000800370003c3b300834f510009003a00a9
:10192000060037000830a000edff37000800a000d7
:10193000ebff37000810a000e9ff37000820a000e7
:10194000e7ff37000818a300010032000800a100db
:101950000838a300010032000820a1008200fb002b
:101960000103b100e98f50000c003e000001780037
:101970008000eb006a08b900b201fb000303b1006c
:1019800080804100020078009201fb000303b10057
:10199000e98f5100f7ff3600060037008000eb00aa
:1019a000a3c2b300834f510002003a00ce0078007a
:1019b0000000e8008005eb00e2c2b300904f110088
:1019c00009003a0008e0a00064415100d04f110026
:1019d00003003200000178000102780006003700a1
:1019e000ce0578000000e80000017800090037000b
:1019f0006a58b9008085410002007800b201fb00fe
:101a00000303b100e98f5100f9ff3600840078002c
:101a1000f5ff370032407800a2b79f00c3c6b3007d
:101a2000834f5000250032000f003c0032c6b30047
:101a3000824f50008800320004003c000004e000a7
:101a4000220232006b4151000f00370042c6b30042
:101a5000824f50001700320065414100824f500014
:101a600094003a001300370032c7b300824f500091
:101a70001b00320007003c0064415100824f5000bf
:101a8000100032000241e800824f500089003a0005
:101a90000f00370052c7b300824f50008a00320057
:101aa00063414100824f500082003a00e0df9f0016
:101ab00009003700e0df9f00850037000840a000e4
:101ac000d4ff3700e0df9f000860a00080003700ef
:101ad000e0df9f000850a0000870a0007c003700e5
:101ae000e0df9f004e007800000678000000e00074
:101af00001003a000c6f21000c0178000000eb009f
:101b0000010037000000e800e24178000304e00033
:101b1000fcff3a00800678000b00e0000300320072
:101b20008d8f5500010031008b0678008005eb0099
:101b30008d8f5000010036008d85500068046400d0
:101b40002a003a00110037003a0090000068a30014
:101b50000700320009017800010220000a00780025
:101b600032ff07000000e00006003a0006003700e0
:101b70008a00780000022000db010700e10f40002e
:101b8000010032008904e8008b05e9000b00e00049
:101b9000edff3a008085eb00140037003a0090001a
:101ba0000068a300090032000c007800b000fb00c0
:101bb00000067800090178000a0078001bff070082
:101bc0000000e00008003a00080037008c007800b0
:101bd0003100fb00010678008a007800c20107008e
:101be000e10f4000010032008904e8000d00780098
:101bf0008006e9000000e000e8ff3a000800e0008d
:101c0000ad013200110037003a0090000068a300d7
:101c10000700320009017800010220000a00780064
:101c200002ff07000000e00006003a00060037004f
:101c30008a00780000022000ab010700e10f40009d
:101c4000010032008904e8008b05e9000b00e00088
:101c5000edff3a00980137004e017800cf91de0089
:101c6000c81ade004818dd004812de0004027000c9
:101c7000e4df9f000848a300080032000404e000ed
:101c800006003200e14f420004003200f4df9f0002
:101c900082e79f002d00200002003700f2df9f0046
:101ca0001d002000e2fd2f000f0141000206e800a8
:101cb00099ff3700e0df9f00ecfd2f000f06460084
:101cc0001d00200094ff3700e0df9f00080cb300e8
:101cd00008017800020cb200700064000200e0000d
:101ce0000d003a000000e000020032004e06be0087
:101cf000020037004e067800cfe6de00e00f560007
:101d0000e08f5e000a003d003800b3006006160058
:101d1000e0861e00060037000000e00002003200ee
:101d20004e06be00020037004e0678008006eb002b
:101d30000b00e00005003a008c8576000bf0a70050
:101d40008b05ea008b05e900cf5dde008801780095
:101d5000030cb200e3b79f0000042000808f510005
:101d60002300320003003c000300e00008003200c2
:101d70002d003700000820006fb29700800f52003e
:101d80000d003200000c2000800f520026003a00a7
:101d9000826f210010c0b30064014100b20f5600f1
:101da000a28f5e001f0039000040e800ea4f50009b
:101db000f9ff3a001b00370010c0b30002012000f9
:101dc00003002000820f5600838f5e00150039004b
:101dd000441add00cc11de00830172004411dd00e5
:101de0000040e800e84f5000f6ff3a000d003700d1
:101df00010c0b3008200200003002000820f5600b4
:101e0000838f5e0007003900431add00cd11de002c
:101e1000830172004311dd000040e800eb4f5000e9
:101e2000f6ff3a00e0df9f006fd997000200fb0049
:101e30008b0f500002003d00ebdf9f0003003700d6
:101e4000808f550001003d00800578000100e00012
:101e50000300320063006400010032008100e900e9
:101e600008e8a300050032008b8f50000200340008
:101e70008b805000010037008000eb00efd9970005
:101e80000300fb000002eb00d4b79f00808f5000de
:101e90000200340000805000d0b79f000828a30043
:101ea00040003200610164000818a3000f003200f6
:101eb0003a0090000068a30006003200b102200042
:101ec0000200e000010032008180e8000901780092
:101ed0000d003700b00220000200e00001003200d7
:101ee0000080e8008a0078000e0037000200e00061
:101ef000100032003a0090000068a3000700320092
:101f000009017800010220000a00780047fe07005e
:101f10000000e00006003a00060037008a00780062
:101f200000022000f0000700e10f40000100320035
:101f30008904e8005fb097000000e0005a0032001a
:101f4000bcb79f00cdb79f00800678003a00900094
:101f50000068a30007003200090178000103200097
:101f60000a00780031fe07000000e00006003a0099
:101f7000060037008a00780000032000da0007001e
:101f8000e10f4000010032008904e8008d06e900fd
:101f9000eeff3a00ddb79f003fb69700cfb697003f
:101fa00041003700dfb197000300e0001a00320063
:101fb0000838a30018003a00bcb79f00cdb79f00b7
:101fc000830678003a0090000068a3000700320002
:101fd00009017800010220000a00780013fe0700c2
:101fe0000000e00006003a00060037008a00780092
:101ff00000022000bc000700e10f40000100320099
:102000008904e8008d06e900eeff3a00ddb79f0085
:102010003fb69700cfb69700610164000818a3008f
:102020000f0032003a0090000068a3000600320062
:10203000b10220000200e000010032008180e800cf
:10204000090178000d003700b00220000200e00016
:10205000010032000080e8008a0078000e0037009e
:102060000200e000100032003a0090000068a30077
:102070000700320009017800010220000a00780000
:10208000eafd07000000e00006003a000600370005
:102090008a0078000002200093000700e10f400052
:1020a000010032008904e8000b03e9006330b90045
:1020b00000017800b2b79f004233dd00806f21003d
:1020c000000343008e01780093b79f000807780053
:1020d000060478005c0037008b05e900000420004e
:1020e0006fb29700800f52003800320003003c00ae
:1020f0000400e000080032003e0037000008200025
:10210000efb09700808f500020003200000c2000bc
:10211000808f500037003a000e48a30010003200b4
:102120001802be000401be000c00be00f4b79f0000
:1021300085bf9f004afc0700e0df9f000000fb0016
:10214000cf80de007fb297008fba97000401be00f7
:10215000c90107000006560081865e0007003700af
:1021600018017800110009000286d800a2002000a2
:10217000110009000280d800e1df9f006fd99700ad
:102180000243b000e2df9f001a003700f06d21002b
:102190000e58a30001003200e06c2100816f210085
:1021a000810054000c01be008100e90003003300ef
:1021b0008301d1000281d300fbff3700ef006100f3
:1021c000e0c07800e1df9f000a0037000c00be008d
:1021d000bfb197008301e900030033008100d10003
:1021e0000080d300fbff3700674060000043b00071
:1021f000e0df9f00ba0090006fda97000400fb0058
:102200000168a3000700320009017800800078000f
:102210000a00780085fd07000000e00005003a0094
:10222000050037008a0078002f000700e10f40000a
:10223000010032008904e8003fb0970063005000bd
:10224000b0b79f00640454000b00e000a2ff3a0006
:102250000e0478001fb797000838a300160032005c
:10226000dfb097000100e0001300340001047800a3
:102270003a0090000068a3000700320009017800ce
:10228000010220000a00780068fd07000000e0005d
:1022900006003a00060037008a007800000220009d
:1022a00011000700e10f4000010032008904e8003e
:1022b0000804e900eeff3a002fb1970012407800c1
:1022c000e0df9f000004e0006bfd3a0009007800a9
:1022d0004f0778004f06be004f05be004f04be00fa
:1022e0006f01b10000000600889fbe000104780065
:1022f000b80090008084eb000118a3003a0032007f
:10230000180190000198a30002003a000200e000ca
:1023100035003a000190a000310498008004780054
:10232000f90fb2000200e00002003a00280090001d
:10233000000c7800ea8f540005003a000178a300f1
:1023400003003a0088007800d0002000e6ff070074
:1023500018009000d8009000810f50000b00320050
:102360000000e80010049800180078000948780080
:10237000000ce80011c0b300a07a210001487800e9
:10238000ea8f540018003a000500370088007800f2
:1023900009407800f9000700800478001200370037
:1023a000380090000088a3000f0032001801900050
:1023b000a80090004800900090fb07009800900053
:1023c000810f500004003200380090000003b30079
:1023d000300498008084eb000000eb0010049800ab
:1023e00028009000000c7800090078004f04be001f
:1023f00000000600889fbe008a9fbe008c9fbe0022
:10240000a178210052bc80000200e0000b003a00dd
:102410006481400052bc8800a2bc8800a1009800e2
:1024200091bc8800214190000204a000a2409800c5
:10243000614190000204a000e2409800670440005f
:102440004244de004244dd0094bc8000417b210018
:1024500049752200818454002d00200011000900dc
:102460008d04d800800678000886e8000c06460037
:102470008001eb0002003700130020000b027800ff
:10248000a44090000108a300020032000a003700b7
:10249000120a780014017800a24090000108a300fd
:1024a000fbff320088004200810f5100020039001a
:1024b0000800e00042003d00940578000b00a100f8
:1024c000848f5500edff3e00e18f5100eaff3a0096
:1024d0008d0f540002003600890f5400140039009b
:1024e0006141b8006148b900b4ff2f000500200029
:1024f0000000520081805a00800f5100818f5900e6
:1025000002003500640544000a003700407b2100ca
:102510007a752200000555000805450011000900e4
:102520000985d8000980b90000057800010037004e
:102530000c0578000a0078000ffb0700e10f40004f
:1025400005003a00640544000a0078000afb070011
:10255000e10f40002b003200a1bc80008008780011
:10256000a1bc8000e481400021419000830f500015
:10257000020032000204a000010037000204a100a2
:10258000a2409800640555000a0540000a0878003a
:10259000aabc8800a1782100010d7800a2bc8000af
:1025a000a24090000104a00021419800a0409000aa
:1025b0000104a100214098008001eb00afff37002b
:1025c00091bc8800810f5100070036001101be0048
:1025d000b2bc8800c3bc8800940878000041eb00be
:1025e00091bc8000a240980093bc8000030a780050
:1025f000a44090000104a000214298006400420021
:10260000010037000000eb004f06be004f05be0082
:102610004f04be00000006000000e0000800320089
:102620006400500091bc8000810f50000100310017
:1026300090bc8800a04090000104a10021409800b7
:1026400000000600889fbe008a9fbe000004be00f6
:102650000900e00007003a000000eb000800e0007d
:102660003600320008007800ebff07000000eb00a6
:10267000320037000800e00003003a00090078004b
:102680005cff07002d0037006400540090057800bf
:1026900068f897000008a3000200320008007800e4
:1026a000ddff07000900780052ff07008004780072
:1026b0000000eb000900e00020003200888f540089
:1026c0001b00320069bd97000905550042d5de00a8
:1026d00088855500c2ddde000a0178008b0f5500a9
:1026e000010036000b0178004211dd0088007800ff
:1026f0000900780014000700888f54000e00310094
:102700004255dd000a854400880f55000a00360056
:102710000804550042c4de004244dd000884440041
:10272000b0bc8000c1bc8000008cbe00020037003d
:102730000800780001003700090078004f05be004e
:102740004f04be0000000600800178000200370040
:10275000b15978000201e9000200e000fcff3a00f4
:1027600000000600800078003104e000feff3a001f
:102770000080ea0000804000000006000200fa002d
:10278000889fbe00a0ff9f000104780038009000e1
:102790000068a30033003a00e200600005003a0040
:1027a0000003b30030049800110498000080eb008f
:1027b0002e003700d80490000900e00006003a001f
:1027c00012002000e6805700480090008bfa0700b6
:1027d0001904980023003700a80090000100e000d1
:1027e00008003a00d17a210021049800010c7800f9
:1027f0002100200051049800110498000030a0002e
:102800003004980018019000a80090004800900043
:102810007afa0700280090008080eb0011049800ed
:10282000aff8970001487800000ce8002ff89700f7
:10283000ea4f50000b003a00380090000088a300d7
:102840000800320018019000a80090004800900095
:102850006afa07000000eb0010049800a80090003e
:10286000010c7800aff897000100fb004f04be0098
:102870000080fa0000000600020ab900001bb9003f
:102880000200b80081004200810043000000060001
:020000040000fa
:102890000000fa000080fa00000006000000fa00c4
:1028a0004487a800313a8000f01f2000808060003b
:1028b00000e0220001007000303a8800f4ff0700b9
:1028c0000427ef002427ef002627ef000827ef005a
:1028d0000a27ef003027ef003627ef003227ef00fe
:1028e0003827ef003a27ef000027ef000227ef001c
:1028f00021388000f0f12f00808060000006200069
:10290000010070002038880021398000f0f12f008c
:1029100080806000000620000100700020398800df
:102920002139800080ff2f00008060000000a0009f
:102930002039880026c7a8002647a8002687a900b6
:102940002607a80026a7a9002627a8002667a80012
:1029500026e7a80000142000e0388800000f2000bf
:10296000f038880000142000a0388800000f2000f4
:10297000b0388800c01c200000398800a01020005a
:102980001039880020c0b3002be7b7002a67ef009a
:1029900010c0b3002de7b7002c67ef002ac7bf00b7
:1029a0006044b0002ee7b7002cc7bf006d40400068
:1029b0002fe7b7002ec7bf0028e7b7002fc7bf001b
:1029c00029e7b70000b0240001002000704688000d
:1029d0008146880000b02400010020009046880055
:1029e000a146880000b0240001002000b046880005
:1029f000c146880000b0240001002000d0468800b5
:102a0000e146880000b0240001002000b0468800a4
:102a1000c14688006000b80000b02400010020001a
:102a200000007800c03888006000b80000b02400c2
:102a30000100200001007800d0388800b2468000f4
:102a4000c34680006000b8000200be0000007800ad
:102a500060388800b2468000c34680006000b8003d
:102a60000200be000100780070388800b246800085
:102a7000c34680006000b8000200be00000078007d
:102a800080388800b2468000c34680006000b800ed
:102a90000200be000100780090388800f0ff2c0092
:102aa000f03988002727a800051c0700213980007d
:102ab000f0ff2c0000806000203988009080a90081
:102ac000a080a90005e7a80000a026008101200041
:102ad0001a740200010000002707a8000040eb0064
:102ae00000fa020000000000f30e2000f2132000a4
:102af0008000eb000000eb004c06070000a0260061
:102b0000810120001a740200010000006000b8007a
:102b100000002000018025000000780000388800b7
:102b20006000b8000000200001802500010078004e
:102b300010388800000000006000b800f00e2f0080
:102b40003191250000007800003888006000b8004e
:102b5000f00e2f0031912500010078001038880018
:102b6000000000000080fa00000006000200fa00e9
:102b7000000f78000080fa00000006001c00fa0038
:102b80006007980071079800020f9800130f9800d3
:102b9000240f9800350f9800460f9800570f9800a3
:102ba0000001200040079800203880000040780095
:102bb0007f4060000080fb0070001000ce0090009d
:102bc000808f5000f8ff3e00100020000000e00061
:102bd000f3ff3200303880000000e000fdff3500d8
:102be00061388000010f780071388000110798006b
:102bf00081388000210798009138800031079800c3
:102c00006000b8006e009000fe00900000007800a8
:102c1000603888006000b8006e009000fe009000f0
:102c200001007800703888006000b8000e0890003d
:102c30009e08900000007800803888006000b8008e
:102c40000e0890009e0890000100780090388800df
:102c50002e099000be0990000000200001202600ef
:102c600000017100818171006000b8000200be00a7
:102c700000007800003888002e099000be099000fe
:102c800000002000012026000001710081817100f8
:102c90006000b8000200be00010078001038880013
:102ca000000000004e099000de09900000002000a6
:102cb0000130260000017100818171006000b800c0
:102cc0000200be0000007800003888004e09900025
:102cd000de09900000002000013026000001710094
:102ce000818171006000b8000200be000100780020
:102cf00010388800000000007eb097008000eb00d4
:102d00004c09dd00c401de00830171004c01dd00cf
:102d10006eb097008000eb000001710081817100ae
:102d20000000200001402600000171008181710037
:102d30006000b8000200be00000078000038880083
:102d40007eb097008000eb004c09dd00c401de007e
:102d5000830171004c01dd006eb097008000eb0034
:102d600000017100818171000000200001402600f7
:102d700000017100818171006000b8000200be0096
:102d8000010078001038880000000000aeb89700fd
:102d900000302000808f5000030032002eb89700d2
:102da0000000e00033003a000eb897006101b8005f
:102db000f00f2000010020000202780003017800db
:102dc00080017800010078000302620000006100c9
:102dd0008000eb00c000dd00000020000001be000c
:102de0006120b800000171008181710000002000a5
:102df0000160260000017100818171006000b8004f
:102e00000200be0000007800003888000eb897006d
:102e10006101b800f00f20000100200002027800dc
:102e2000030178008001780001007800030262004d
:102e3000000061008000eb00c000dd000000200009
:102e40000001be006120b8000001710081817100a5
:102e500000002000016026000001710081817100e6
:102e60006000b8000200be00010078001038880041
:102e7000000000004eb89700e10f50000300320040
:102e80004eb897000000e000020032002000200051
:102e900040bf9f003eb89700e10f50000300320092
:102ea0003eb897000000e000020032004000200021
:102eb00030bf9f002eb897006101b8001eb8970080
:102ec0008000eb0000017100818171004eb8970015
:102ed0008000eb0000017100818171003eb8970015
:102ee0008000eb0000017100818171000000200072
:102ef0000170260000017100818171006000b8003e
:102f00000200be0000007800003888002eb897004c
:102f10006101b8001eb897008000eb00000171004d
:102f2000818171004eb897008000eb0000017100b4
:102f3000818171003eb897008000eb0000017100b4
:102f400081817100000020000170260000017100e5
:102f5000818171006000b8000200be0001007800ad
:102f60001038880000000000000120005007980081
:102f700020388000004078007f4060000080fb0027
:102f800070001000de009000808f5000f8ff3e00bf
:102f9000100020000000e000f3ff32003038800015
:102fa0000000e000fdff35009e00780061388800d9
:102fb0009e00900071388800ae0090008138880033
:102fc000be00900091388800100020000080fa00b8
:102fd000000006003a00fa005017980061179800a8
:102fe00072179800031f9800141f9800251f98005f
:102ff000361f9800471f98005e119000ee11900058
:10300000028fbe007e1190008e199000220798005a
:10301000330798001e199000ae19900042079800df
:10302000530798003e199000ce199000620798004f
:1030300073079800ceb99700030f9800beb89700a9
:10304000110f98002eb99700220f98009eb9970093
:10305000330f98008eb89700410f98007eb197000b
:10306000520f9800eeb19700630f98000001200006
:10307000700f980020388000004078007f4060008a
:103080000080fb0070001000fe089000808f500050
:10309000f8ff3e00100020000000e000f3ff3200c7
:1030a000303880000000e000fdff3500613880000e
:1030b000011798007238800012179800833880003a
:1030c0002317980091388000311798006000b800ed
:1030d0001e00be0000007800603888006000b80064
:1030e0001e00be0001007800703888006000b80043
:1030f0002e009000be00900000007800803888000c
:103100006000b8002e009000be0090000100780022
:10311000903888004e019000de01900000002000f1
:103120000120260000017100818171006000b8005b
:103130000200be0000007800003888004e019000b8
:10314000de01900000002000012026000001710037
:10315000818171006000b8000200be0001007800ab
:1031600010388800000000006e019000fe01900001
:1031700000002000013026000001710081817100f3
:103180006000b8000200be0000007800003888002f
:103190006e019000fe01900000002000013026002a
:1031a00000017100818171006000b8000200be0062
:1031b0000100780010388800000000005e089000d0
:1031c0008000eb004c09dd00c401de0083017100ca
:1031d0004c01dd006e0890008000eb0000017100e2
:1031e0008181710000002000014026000001710073
:1031f000818171006000b8000200be00000078000c
:10320000003888005e0890008000eb004c09dd006b
:10321000c401de00830171004c01dd006e089000e6
:103220008000eb000001710081817100000020002e
:103230000140260000017100818171006000b8002a
:103240000200be0001007800103888000000000075
:10325000ae08900000302000808f50000300320044
:103260002e0890000000e00033003a004e08900065
:103270006101b800f00f2000010020000202780078
:1032800003017800800178000100780003026200e9
:10329000000061008000eb00c000dd0000002000a5
:1032a0000001be006120b800000171008181710041
:1032b0000000200001602600000171008181710082
:1032c0006000b8000200be000000780000388800ee
:1032d0004e0890006101b800f00f200001002000ae
:1032e0000202780003017800800178000100780074
:1032f00003026200000061008000eb00c000dd00fe
:10330000000020000001be006120b8000001710033
:103310008181710000002000016026000001710021
:10332000818171006000b8000200be0001007800d9
:1033300010388800000000000e089000e10f5000d7
:10334000030032000e0890000000e000020032008e
:1033500020002000000f98001e089000e10f500090
:10336000030032001e0890000000e000020032005e
:1033700040002000100f98002e0890006101b80056
:103380003e0890008000eb00000171008181710017
:103390000e0890008000eb00000171008181710037
:1033a0001e0890008000eb00000171008181710017
:1033b0000000200001702600000171008181710071
:1033c0006000b8000200be000000780000388800ed
:1033d0002e0890006101b8003e0890008000eb00cc
:1033e00000017100818171000e0890008000eb00e7
:1033f00000017100818171001e0890008000eb00c7
:103400000001710081817100000020000170260020
:1034100000017100818171006000b8000200be00ef
:103420000100780010388800000000000001200032
:103430004017980020388000004078007f406000ee
:103440000080fb0070001000ce109000808f5000b4
:10345000f8ff3e00100020000000e000f3ff320003
:10346000303880000000e000fdff35000e119000b4
:10347000623888009e11900073388800ae1090006a
:10348000813888003e11900092388800100020009a
:103490000080fa00000006003a00fa005017980079
:1034a0006117980072179800031f9800141f980066
:1034b000251f9800361f9800471f98005e11900046
:1034c000ee119000028fbe007e1190008e199000c8
:1034d00022079800330798001e199000ae1990003b
:1034e00042079800530798003e199000ce199000ab
:1034f00062079800730798000000eb00000f980027
:103500000000eb00100f980000082000200f98002a
:1035100000062000300f98000000eb00400f9800dc
:10352000ceb99700530f9800beb89700610f98006e
:1035300000012000700f98002038800000407800c3
:103540007f4060000080fb0070001000fe089000cb
:10355000808f5000f8ff3e00100020000000e000c7
:10356000f3ff3200303880000000e000fdff35003e
:103570006238800002179800733880001317980093
:103580008138800021179800923880003217980007
:103590006000b8001e00be0000007800603888009f
:1035a0006000b8001e00be0001007800703888007e
:1035b0006000b8002e009000be009000000078006f
:1035c000803888006000b8002e009000be00900097
:1035d00001007800903888004e019000de019000d4
:1035e000000020000120260000017100818171008f
:1035f0006000b8000200be000000780000388800bb
:103600004e019000de019000000020000120260005
:1036100000017100818171006000b8000200be00ed
:103620000100780010388800000000006e01900052
:10363000fe01900000002000013026000001710012
:10364000818171006000b8000200be0000007800b7
:10365000003888006e019000fe01900000002000fc
:103660000130260000017100818171006000b80006
:103670000200be0001007800103888000000000041
:103680005e0890008000eb004c09dd00c401de0004
:10369000830171004c01dd006e0890008000eb009a
:1036a00000017100818171000000200001402600ae
:1036b00000017100818171006000b8000200be004d
:1036c00000007800003888005e0890008000eb0061
:1036d0004c09dd00c401de00830171004c01dd00f6
:1036e0006e0890008000eb00000171008181710084
:1036f000000020000140260000017100818171005e
:103700006000b8000200be00010078001038880098
:1037100000000000ae08900000302000808f5000b4
:10372000030032002e0890000000e00033003a0051
:103730004e0890006101b800f00f20000100200049
:10374000020278000301780080017800010078000f
:1037500003026200000061008000eb00c000dd0099
:10376000000020000001be006120b80000017100cf
:1037700081817100000020000160260000017100bd
:10378000818171006000b8000200be000000780076
:10379000003888004e0890006101b800f00f20004a
:1037a0000100200002027800030178008001780007
:1037b0000100780003026200000061008000eb005d
:1037c000c000dd00000020000001be006120b80044
:1037d000000171008181710000002000016026005d
:1037e00000017100818171006000b8000200be001c
:1037f0000100780010388800000000000e089000da
:10380000e10f5000030032000e0890000000e000bd
:103810000200320020002000000f98001e089000d7
:10382000e10f5000030032001e0890000000e0008d
:103830000200320040002000100f98002e08900077
:103840006101b8003e0890008000eb0000017100ab
:10385000818171000e0890008000eb000001710072
:10386000818171001e0890008000eb000001710052
:1038700081817100000020000170260000017100ac
:10388000818171006000b8000200be000000780075
:10389000003888002e0890006101b8003e089000b2
:1038a0008000eb0000017100818171000e08900022
:1038b0008000eb0000017100818171001e08900002
:1038c0008000eb0000017100818171000000200088
:1038d0000170260000017100818171006000b80054
:1038e0000200be00010078001038880000000000cf
:1038f0000001200040179800203880000040780028
:103900007f4060000080fb0070001000ce1090002f
:10391000808f5000f8ff3e00100020000000e00003
:10392000f3ff3200303880000000e000fdff35007a
:103930008e119000633888009e10900071388800c6
:103940002e11900082388800be11900093388800b4
:10395000100020000080fa00000006002400fa0099
:10396000200f9800310f9800420f9800530f9800d5
:10397000640f9800750f98000617980017179800a5
:10398000beb89700010f7800ceb8970011079800d5
:10399000ee08900021079800fe089000310798007b
:1039a0008e109000410798009e10900051079800db
:1039b0003e0090008000eb00021420000289b90054
:1039c000020178006002b90084017800030141001f
:1039d000031420000300b8000101410082007800b8
:1039e0002e0190008001eb00000041008180490021
:1039f00060079800710798005e0090008000eb005f
:103a0000021420000289b900020178006002b900a6
:103a10008401780003014100031420000300b80072
:103a200001014100820078004e0190008001eb000e
:103a30000000410081804900000f9800110f98009c
:103a40009e1f78009e009000811f78000000eb0010
:103a5000801f780000062000801f780000082000ea
:103a6000801f78000000eb00801f78000000eb0052
:103a7000801f78000e0b90009e0b90006e0290004d
:103a8000fe0290004e099000de0990002e08900082
:103a9000be0890004ffd0700ee8757001000200081
:103aa0000080fa00000006000600fa0010079800e7
:103ab0002107980040002000000f78002038800087
:103ac000004078007f4060000080fb007000100024
:103ad0009e007800808f5000f8ff3e00100020000c
:103ae0000000e000f3ff32000efa020000000000c8
:103af0000081fb008001eb00000020000160260037
:103b000000017100818171006000b8000200be00f8
:103b100000007800003888000efa02000000000063
:103b20000081fb008001eb00000020000160260006
:103b300000017100818171006000b8000200be00c8
:103b40000100780010388800000000002e0090006e
:103b50008000eb00021420000289b9000201780005
:103b60006002b900840178000301410003142000c1
:103b70000300b80001014100820078001e0190009e
:103b80008001eb000001410081814900000020001c
:103b90000130260000017100818171006000b800d1
:103ba0000200be0000007800003888002e0090005f
:103bb0008000eb00021420000289b90002017800a5
:103bc0006002b90084017800030141000314200061
:103bd0000300b80001014100820078001e0190003e
:103be0008001eb00000141008181490000002000bc
:103bf0000130260000017100818171006000b80071
:103c00000200be00010078001038880000000000ab
:103c10006000b8001000210001402600000078007c
:103c2000003888006000b800100021000140260024
:103c30000100780010388800000000006000b80023
:103c4000000620000170260000007800003888007f
:103c50006000b80000062000017026000100780016
:103c60001038880000000000100020000080fa00da
:103c7000000006000a00fa0030079800410798008b
:103c80000000eb0020079800be009000f013200019
:103c9000808f500004003e00ce009000f00e200007
:103ca000808f5000020036000040eb008c0037008f
:103cb00000012000000f78002038800000407800cc
:103cc0007f4060000080fb00700010009e007800c4
:103cd000808f5000f8ff3e00100020000000e00040
:103ce000f3ff3200303880000000e000fdff3500b7
:103cf000640047006101b8006000b8000200be0027
:103d00000000780080388800640047006101b80036
:103d10006000b8000200be00010078009038880002
:103d20004e0090008000eb00021420000289b900d0
:103d3000020178006002b9008401780003014100ab
:103d4000031420000300b800010141008200780044
:103d50003e0190008001eb0000014100818149009b
:103d60000000200001202600000171008181710007
:103d70006000b8000200be00000078000038880033
:103d80004e0090008000eb00021420000289b90070
:103d9000020178006002b90084017800030141004b
:103da000031420000300b8000101410082007800e4
:103db0003e0190008001eb0000014100818149003b
:103dc00000002000012026000001710081817100a7
:103dd0006000b8000200be000100780010388800c2
:103de000000000006000b800000020000130260044
:103df00000007800003888006000b8000000200053
:103e00000130260001007800103888000000000012
:103e10006000b8001000210001402600000078007a
:103e2000003888006000b800100021000140260022
:103e30000100780010388800000000006000b80021
:103e4000000e200001702600000078000038880075
:103e50006000b800000e200001702600010078000c
:103e600010388800000000000001200010079800b2
:103e700020388000004078007f4060000080fb0018
:103e8000700010009e009000808f5000f8ff3e00f0
:103e9000100020000000e000f3ff32003038800006
:103ea0000000e000fdff3500b2468000c346800000
:103eb0006000b8000200be00000078008038880072
:103ec000b2468000c34680006000b8000200be0019
:103ed00001007800903888002e00900000407800a3
:103ee0000080fa00000006001000fa004007980069
:103ef000510798006207980073079800fe00900031
:103f0000010f7800100020001007980040002000ea
:103f10002007980020388000004078007f40600033
:103f20000080fb0070001000ae009000808f5000f9
:103f3000f8ff3e00100020000000e000f3ff320018
:103f40006e0090006101b8006000b8000200be0081
:103f500000007800603888006e0090006101b800b1
:103f60006000b8000200be000100780070388800d0
:103f70006000b8000000200001202600000078004a
:103f8000003888006000b8000000200001202600f2
:103f90000100780010388800000000005e009000ea
:103fa0008000eb00021420000289b90002017800b1
:103fb0006002b9008401780003014100031420006d
:103fc0000300b80001014100820078004e0190001a
:103fd0008001eb00000141008181490000002000c8
:103fe0000130260000017100818171006000b8007d
:103ff0000200be0000007800003888005e009000db
:104000008000eb00021420000289b9000201780050
:104010006002b9008401780003014100031420000c
:104020000300b80001014100820078004e019000b9
:104030008001eb0000014100818149000000200067
:104040000130260000017100818171006000b8001c
:104050000200be0001007800103888000000000057
:104060001e0078008000eb004c09dd00c401de007a
:10407000830171004c01dd001e0090008000eb0008
:1040800000017100818171000000200001402600c4
:1040900000017100818171006000b8000200be0063
:1040a00000007800003888001e0078008000eb00d7
:1040b0004c09dd00c401de00830171004c01dd000c
:1040c0001e0090008000eb000001710081817100f2
:1040d0000000200001402600000171008181710074
:1040e0006000b8000200be000100780010388800af
:1040f000000000006000b800200e200001702600c3
:1041000000007800003888006000b800200e200011
:1041100001702600010078001038880000000000bf
:10412000000120003007980020388000004078000f
:104130007f4060000080fb0070001000be00900017
:10414000808f5000f8ff3e00100020000000e000cb
:10415000f3ff3200303880000000e000fdff350042
:10416000b2468000c34680006000b8000200be0076
:104170000000780060388800b2468000c3468000a6
:104180006000b8000200be000100780070388800ae
:104190007e0090000080fa00000006000e00fa0089
:1041a000300798004107980052079800630798006d
:1041b000000000003e160700e40f5000fdff320033
:1041c000ee009000010f780010002000100798000a
:1041d0005e0090006101b8006000b8000200be00ff
:1041e00000007800803888005e0090006101b8000f
:1041f0006000b8000200be0001007800903888001e
:104200006000b800000020000130260000007800a7
:10421000003888006000b80000002000013026004f
:104220000100780010388800000000004e00900067
:104230008000eb00021420000289b900020178001e
:104240006002b900840178000301410003142000da
:104250000300b80001014100820078003e01900097
:104260008001eb0000014100818149000000200035
:104270000120260000017100818171006000b800fa
:104280000200be0000007800003888004e00900058
:104290008000eb00021420000289b90002017800be
:1042a0006002b9008401780003014100031420007a
:1042b0000300b80001014100820078003e01900037
:1042c0008001eb00000141008181490000002000d5
:1042d0000120260000017100818171006000b8009a
:1042e0000200be00010078001038880000000000c5
:1042f0001e0078008000eb004c09dd00c401de00e8
:10430000830171004c01dd001e0090008000eb0075
:104310000001710081817100000020000140260031
:1043200000017100818171006000b8000200be00d0
:1043300000007800003888001e0078008000eb0044
:104340004c09dd00c401de00830171004c01dd0079
:104350001e0090008000eb0000017100818171005f
:1043600000002000014026000001710081817100e1
:104370006000b8000200be0001007800103888001c
:10438000000000006000b800400e20000170260010
:1043900000007800003888006000b800400e20005f
:1043a000017026000100780010388800000000002d
:1043b000000120002007980020388000004078008d
:1043c0007f4060000080fb0070001000ae00900095
:1043d000808f5000f8ff3e00100020000000e00039
:1043e000f3ff3200303880000000e000fdff3500b0
:1043f000b2468000c34680006000b8000200be00e4
:104400000000780080388800b2468000c3468000f3
:104410006000b8000200be000100780090388800fb
:104420006e0090000080fa00000006001600fa00fe
:1044300070079800010f9800120f9800230f980042
:104440000000eb00000f78000000eb001007980060
:104450009e0890007e00900000805000000fe80051
:10446000ae0890000e089000008050000000e800a8
:10447000100798008e08900021079800fe00900019
:104480003107980040002000600798002038800025
:10449000004078007f4060000080fb00700010004a
:1044a000ee009000808f5000f8ff3e0010002000ca
:1044b0000000e00002003a000000eb00710037004d
:1044c0002e0090008000eb00021420000289b90049
:1044d000020178006002b900840178000301410004
:1044e000031420000300b80001014100820078009d
:1044f0003e0190008001eb000000410081804900f6
:1045000040079800510798000efa020000000000d2
:104510000081fb008001eb0000002000016026000c
:1045200000017100818171006000b8000200be00ce
:1045300000007800003888000efa02000000000039
:104540000081fb008001eb000000200001602600dc
:1045500000017100818171006000b8000200be009e
:104560000100780010388800000000004e01900023
:10457000de019000000020000130260000017100e3
:10458000818171006000b8000200be000000780068
:10459000003888004e019000de01900000002000ed
:1045a0000130260000017100818171006000b800b7
:1045b0000200be00010078001038880000000000f2
:1045c0001e0078008000eb004c09dd00c401de0015
:1045d000830171004c01dd001e0090008000eb00a3
:1045e000000171008181710000002000014026005f
:1045f00000017100818171006000b8000200be00fe
:1046000000007800003888001e0078008000eb0071
:104610004c09dd00c401de00830171004c01dd00a6
:104620001e0090008000eb0000017100818171008c
:10463000000020000140260000017100818171000e
:104640006000b8000200be00010078001038880049
:10465000000000006000b800000620000170260085
:1046600000007800003888006000b80000062000d4
:10467000017026000100780010388800000000005a
:10468000100020000080fa00000006000400fa007c
:104690004201020001000000000f780010b020006d
:1046a00034010200010000004000200010079800c3
:1046b00020388000004078007f4060000080fb00d0
:1046c000700010009e009000808f5000f8ff3e00a8
:1046d000100020000000e000f3ff32000efa02009c
:1046e000000000000081fb008001eb0000002000c2
:1046f0000160260000017100818171006000b80036
:104700000200be0000007800003888000efa0200a7
:10471000000000000081fb008001eb000000200091
:104720000160260000017100818171006000b80005
:104730000200be0001007800103888000000000070
:104740006000b80000002000013026000000780062
:10475000003888006000b80000002000013026000a
:104760000100780010388800000000006000b800e8
:10477000000f20004141260000007800003888002a
:104780006000b800000f20004141260001007800c1
:1047900010388800000000006000b80040062000cb
:1047a0000170260000007800003888006000b80022
:1047b00040062000017026000100780010388800b3
:1047c000000000008000eb000000eb0092fb020004
:1047d000000000001e00780034010200010000000b
:1047e000100020000080fa00000006000800fa0017
:1047f000000f7800110798002207980033079800ef
:104800000100370000000000a9140700e40f500069
:10481000fcff3200f2fa02000000000067006000b6
:1048200060478800f2fa020000000000700060009b
:1048300070478800404e800031d82000810f500022
:10484000d100320031d82000810f500007003e0017
:1048500001d82000810f50000b00320021d8200029
:10486000810f5000960032004a01370041d82000e5
:10487000810f50004001320051d82000810f5000bc
:104880008b003200430137002e0090009e0078001c
:10489000808f500017003a009e0078008147880002
:1048a00080478000904788009e0090003e00900066
:1048b000808f500005003600be009000a1478800a0
:1048c0009e009000b1478800040037009e009000d1
:1048d000a1478800be009000b1478800f828ef008b
:1048e00010002000d047880020d82000404e8800cb
:1048f0002c0137009e0090003e009000808f5000f9
:1049000017003a009e009000b1478800b047800031
:10491000a04788002e0090009e007800808f5000f5
:1049200005003600ae009000914788009e00780098
:1049300081478800040037009e0078009147880076
:10494000ae00900081478800f828ef00100020009a
:10495000d047880030d82000404e88001101370031
:10496000fc28ef002e0090001e005000f047880049
:10497000f04780000000e00007003d00f0478000a5
:104980000000ea00f0478800e04780000000e900ee
:10499000e047880003003700e04780000000e8009f
:1049a000e04788000029ef00be0090001e00900044
:1049b0000080500010488800104880000000e0008f
:1049c00007003d00104880000000ea001048880001
:1049d000004880000000e90000488800030037001c
:1049e000004880000000e800004888000429ef002b
:1049f000f147800010488000808f500014003d0077
:104a0000204880000000e80020488800f04780002f
:104a10003048880010488000f04788003048800007
:104a200010488800e0478000304888000048800037
:104a3000e047880030488000004888009e009000d1
:104a4000914788009e007800a14788000400370045
:104a50009e007800914788009e009000a147880042
:104a6000ae00900081478800be009000b1478800ea
:104a7000f047800000004000404888001048800057
:104a8000000040005048880051488000f0478000f6
:104a90000080500060488800f828ef0010002000d7
:104aa000d047880040d82000404e8800bd00370025
:104ab00000d82000404e880010002000ba003700c7
:104ac000a04780003048880026003700c04780009b
:104ad0000000e800c0478800c047800080007800e0
:104ae00060478000808f500004003a00d04780006b
:104af0000000a200d0478800f828ef00d0478000cf
:104b00000000e0001400320070478000f00f5000f9
:104b10000d003a0030488000800178009047800006
:104b20000001e80030488000800078009047800055
:104b30000000e9003dfe07000000e00006003a002a
:104b40000000eb00980037003048800080007800bb
:104b500090478000d4fb0700304880000000e80048
:104b6000304888003048800080007800b0478000de
:104b70000000e800808f5000d4ff390050d820009a
:104b8000404e8800870037009047800030488800fa
:104b900024003700c04780000000e800c0478800bc
:104ba000c04780008000780060478000808f500000
:104bb00004003a00d04780000000a200d0478800df
:104bc000f828ef00d04780000000e000120032001b
:104bd00070478000f00f50000c003a00a0478000a2
:104be0008001e8003048800000017800a047800084
:104bf0008000e900304880000cfe07000000e00063
:104c000005003a000000eb0067003700a147800074
:104c100030488000a4fb0700304880000000e80016
:104c2000304888003048800080007800804780004d
:104c30000000e800808f5000d6ff390050d82000d7
:104c4000404e880057003700d04780000000e00049
:104c500026003200204880000000e00012003200f0
:104c600070478000f00f50000b003a00934780001f
:104c7000a04780000001e80091478000a047800025
:104c80000000e900e9fd07000000e00017003a001d
:104c90000000eb004400370091478000a0478000ef
:104ca00081fb07001100370070478000f00f5000b3
:104cb0000b003a00a04780008001e8009247800086
:104cc000a04780008000e90090478000d7fd0700e2
:104cd0000000e00005003a000000eb003200370061
:104ce000a1478000904780006ffb0700604880006c
:104cf0000000e00008003500a14780000048800067
:104d000000804000a0478800614880004048800043
:104d1000008050006048880091478000e047800094
:104d20000080400090478800614880005048800023
:104d30000080400060488800c04780000000e80014
:104d4000c0478800c047800080007800604780002e
:104d5000808f500004003a00d04780000000a2007d
:104d6000d0478800f828ef00f04780000000e900f5
:104d7000f04788000100370000000000f047800085
:104d80000000e000b0ff3d0050d82000404e8800f9
:104d90000400370000d82000404e8800100020009a
:104da00001003700a3fe37000080fa000000060073
:104db0000200fa00000f78001e0078001000780052
:104dc0006f006000e50f500017003a001e007800e9
:104dd00020019000b001900000002000012025007b
:104de00000017100818171006000b8000200be0006
:104df00000007800003888001e0078002001900034
:104e0000b001900000002000012025000001710089
:104e1000818171006000b8000200be0001007800ce
:104e200010388800000000000080fa000000060032
:104e30001a00fa00300f9800410f98004e089000b9
:104e400068004000100798001e009000900090003d
:104e5000210798001e009000200190003207980062
:104e60004e08900020019000b00190004207980089
:104e7000530798000000eb00000f7800be09900077
:104e8000434788004047800010407800eae8b700b8
:104e9000203880004500de0067406000404f9800e9
:104ea00021388000f0f12f00808060000006200093
:104eb0000100700020388800470037002e00900065
:104ec00080407800eac8bf0080cf50003f003c001f
:104ed0003e00900080407800eac8bf0080cf5000bc
:104ee0003c003500eac8bf008000fb002e009000a7
:104ef000004078000000fb00008050000080e800c7
:104f00004200dd008000eb0070079800010f980060
:104f100000000000740047008000eb001200200039
:104f2000821f780012002000821f78000001eb0031
:104f3000821f780002062000821f780002082000ed
:104f4000821f780012002000821f780012002000cb
:104f5000821f78006033b8007e0290008e0a9000b5
:104f60000001be004e009000de00900019f807001e
:104f7000ee8757000000e000e6ff3200000120004d
:104f8000100f980020388000004078007f406000bb
:104f90000080fb00700010009e089000808f500081
:104fa000f8ff3e00100020000000e000f3ff320098
:104fb000303880000000e000fdff35004e509000ca
:104fc0000080fb001e0f40000300370000000000bf
:104fd00001003700000000004147800011407800c8
:104fe000eae8b700a28e20001241780010c0b3009a
:104ff000ef4f510001003c000040eb008100e80051
:10500000414788000004e000acff3a004e489000a1
:10501000674060000080fb00670060004500dd0025
:1050200022388000f1f12f00810061000100700042
:10503000203888001e0078000080fa00000006007a
:105040000400fa00889fbe0020479800400020001e
:10505000000f780020388000004078007f4060001a
:105060000080fb00700010009e007800808f5000d0
:10507000f8ff3e00100020000000e00002003a00af
:105080000000eb005f0037000efa02000000000095
:105090000081fb008001eb000000200001002500e2
:1050a00000017100818171006000b8000200be0043
:1050b00000007800003888000efa020000000000ae
:1050c0000081fb008001eb000000200001002500b2
:1050d00000017100818171006000b8000200be0013
:1050e000010078001038880000000000b8020200bb
:1050f00001000000cf80de004c0cdd00c404de00a7
:10510000890474004c04dd00c002020001000000ac
:10511000cf80de0000017400818174000000200057
:1051200001a0250000017100818171006000b800bc
:105130000200be000000780000388800b8020200bb
:1051400001000000cf80de004c0cdd00c404de0056
:10515000890474004c04dd00c0020200010000005c
:10516000cf80de0000017400818174000000200007
:1051700001a0250000017100818171006000b8006c
:105180000200be0001007800103888000000000016
:105190002e4090000001fb00cf91de0000002000b7
:1051a0000138250000017100818171006000b800a4
:1051b0000200be0000007800003888002e409000f9
:1051c0000001fb00cf91de00000020000138250027
:1051d00000017100818171006000b8000200be0012
:1051e000010078001038880000000000d0398000ed
:1051f00080007800c0398000c80202000100000071
:10520000100020004f04be000080fa0000000600dd
:105210003600fa00889fbe008a9fbe007017980073
:10522000011f9800121f9800231f98000040eb00f8
:10523000004f78000000eb00100f98000000eb001a
:10524000400f98000040eb00605798009e189000b7
:10525000510f9800800220000e004000600f98005f
:105260005e089000c05090006e08900011409800b9
:105270005e08900050009000800078006e0890005a
:10528000110098005e0890004000900080007800b7
:105290006e089000210098001e18900020049000d5
:1052a000b00490001e189000505090000004e000e0
:1052b0001f003a0040120700e10f500007003a00bb
:1052c0000000eb0020179800100020003017980015
:1052d00064044400e0844c001b0037000800be005a
:1052e0009201800000f0a4008180d200910188002a
:1052f0001000780092018800201798006204440092
:10530000e0844c000800be009201800000f0a40080
:105310008180d200910188001000780092018800fd
:105320003017980062044400e0844c000600370007
:105330000000eb00201798001000200030179800a4
:1053400062044400e0844c006e109000670060002e
:105350000000e0000300320010002000200f980041
:10536000020037000000eb00200f98006e10900044
:105370004380de00800078002e089000008040000e
:10538000400f98002e189000100078000000e000f8
:105390001d0032002e189000b00090006e1090009a
