:020000040000fa
:080000000002040000000000f2
:020000040000fa
:040008001a040000d6
:020000040000fa
:04000c0022040000ca
:020000040000fa
:040010002a040000be
:020000040000fa
:0400140032040000b2
:020000040000fa
:040018003a040000a6
:020000040000fa
:04001c001a040000c2
:020000040000fa
:040020001a040000be
:020000040000fa
:040024001a040000ba
:020000040000fa
:040028001a040000b6
:020000040000fa
:04002c001a040000b2
:020000040000fa
:040030001a040000ae
:020000040000fa
:040034001a040000aa
:020000040000fa
:040038001a040000a6
:020000040000fa
:04003c001a040000a2
:020000040000fa
:040040001a0400009e
:020000040000fa
:04004400cc030000e9
:020000040000fa
:04004800920300001f
:020000040000fa
:04004c001a04000092
:020000040000fa
:040050001a0400008e
:020000040000fa
:04005400980400000c
:020000040000fa
:04005800420400005e
:020000040000fa
:04005c001a04000082
:020000040000fa
:040060001a0400007e
:020000040000fa
:040064001a0400007a
:020000040000fa
:040068001a04000076
:020000040000fa
:04006c001a04000072
:020000040000fa
:040070001a0400006e
:020000040000fa
:040074001a0400006a
:020000040000fa
:04007800ba030000c7
:020000040000fa
:04007c001a04000062
:020000040000fa
:040080001a0400005e
:020000040000fa
:040084001a0400005a
:020000040000fa
:040088001a04000056
:020000040000fa
:04008c001a04000052
:020000040000fa
:040090001a0400004e
:020000040000fa
:04009400e60300007f
:020000040000fa
:040098000004000060
:020000040000fa
:04009c00c00300009d
:020000040000fa
:0400a0001a0400003e
:020000040000fa
:0400a4001a0400003a
:020000040000fa
:0400a8001a04000036
:020000040000fa
:0400ac001a04000032
:020000040000fa
:0400b0001a0400002e
:020000040000fa
:0400b4001a0400002a
:020000040000fa
:0400b8001a04000026
:020000040000fa
:0400bc001a04000022
:020000040000fa
:0400c0001a0400001e
:020000040000fa
:0400c4001a0400001a
:020000040000fa
:0400c8001a04000016
:020000040000fa
:0400cc001a04000012
:020000040000fa
:0400d0001a0400000e
:020000040000fa
:0400d4001a0400000a
:020000040000fa
:0400d8001a04000006
:020000040000fa
:0400dc001a04000002
:020000040000fa
:0400e0001a040000fe
:020000040000fa
:0400e4001a040000fa
:020000040000fa
:0400e8001a040000f6
:020000040000fa
:0400ec001a040000f2
:020000040000fa
:0400f0001a040000ee
:020000040000fa
:0400f4001a040000ea
:020000040000fa
:0400f8001a040000e6
:020000040000fa
:0400fc00c603000037
:020000040000fa
:040100001a040000dd
:020000040000fa
:040104001a040000d9
:020000040000fa
:040108001a040000d5
:020000040000fa
:04010c001a040000d1
:020000040000fa
:040110001a040000cd
:020000040000fa
:040114001a040000c9
:020000040000fa
:040118001a040000c5
:020000040000fa
:04011c001a040000c1
:020000040000fa
:040120001a040000bd
:020000040000fa
:040124001a040000b9
:020000040000fa
:040128001a040000b5
:020000040000fa
:04012c00d2040000f9
:020000040000fa
:040130001a040000ad
:020000040000fa
:040134001a040000a9
:020000040000fa
:040138001a040000a5
:020000040000fa
:04013c001a040000a1
:020000040000fa
:040140001a0400009d
:020000040000fa
:040144001a04000099
:020000040000fa
:040148001a04000095
:020000040000fa
:04014c001a04000091
:020000040000fa
:040150001a0400008d
:020000040000fa
:040154001a04000089
:020000040000fa
:040158001a04000085
:020000040000fa
:04015c001a04000081
:020000040000fa
:040160001a0400007d
:020000040000fa
:040164001a04000079
:020000040000fa
:040168001a04000075
:020000040000fa
:04016c001a04000071
:020000040000fa
:040170001a0400006d
:020000040000fa
:040174001a04000069
:020000040000fa
:04017800e804000097
:020000040000fa
:04017c001a04000061
:020000040000fa
:040180001a0400005d
:020000040000fa
:040184001a04000059
:020000040000fa
:040188001a04000055
:020000040000fa
:04018c001a04000051
:020000040000fa
:040190001a0400004d
:020000040000fa
:040194001a04000049
:020000040000fa
:040198001a04000045
:020000040000fa
:04019c001a04000041
:020000040000fa
:0401a0001a0400003d
:020000040000fa
:0401a4001a04000039
:020000040000fa
:0401a8001a04000035
:020000040000fa
:0401ac001a04000031
:020000040000fa
:0401b0001a0400002d
:020000040000fa
:0401b4001a04000029
:020000040000fa
:0401b800040300003c
:020000040000fa
:040208001a040000d4
:020000040000fa
:04020c001a040000d0
:020000040000fa
:040210001a040000cc
:020000040000fa
:040214001a040000c8
:020000040000fa
:040218001a040000c4
:020000040000fa
:04021c001a040000c0
:020000040000fa
:040220001a040000bc
:020000040000fa
:040224001a040000b8
:020000040000fa
:040228001a040000b4
:020000040000fa
:04022c001a040000b0
:020000040000fa
:040230001a040000ac
:020000040000fa
:040234001a040000a8
:020000040000fa
:040238001a040000a4
:020000040000fa
:04023c001a040000a0
:020000040000fa
:040240001a0400009c
:020000040000fa
:040244001a04000098
:020000040000fa
:040248001a04000094
:020000040000fa
:04024c001a04000090
:020000040000fa
:040250001a0400008c
:020000040000fa
:040254001a04000088
:020000040000fa
:040258001a04000084
:020000040000fa
:04025c001a04000080
:020000040000fa
:040260001a0400007c
:020000040000fa
:040264001a04000078
:020000040000fa
:040268001a04000074
:020000040000fa
:04026c001a04000070
:020000040000fa
:040270001a0400006c
:020000040000fa
:040274001a04000068
:020000040000fa
:040278001a04000064
:020000040000fa
:04027c001a04000060
:020000040000fa
:040280001a0400005c
:020000040000fa
:040284001a04000058
:020000040000fa
:040288001a04000054
:020000040000fa
:04028c001a04000050
:020000040000fa
:040290001a0400004c
:020000040000fa
:040294001a04000048
:020000040000fa
:040298001a04000044
:020000040000fa
:04029c001a04000040
:020000040000fa
:0402a0001a0400003c
:020000040000fa
:0402a4001a04000038
:020000040000fa
:0402a8001a04000034
:020000040000fa
:0402ac001a04000030
:020000040000fa
:0402b0001a0400002c
:020000040000fa
:0402b4001a04000028
:020000040000fa
:0402b8001a04000024
:020000040000fa
:0402bc001a04000020
:020000040000fa
:0402c0001a0400001c
:020000040000fa
:0402c4001a04000018
:020000040000fa
:0402c8001a04000014
:020000040000fa
:0402cc001a04000010
:020000040000fa
:0402d0001a0400000c
:020000040000fa
:0402d4001a04000008
:020000040000fa
:0402d8001a04000004
:020000040000fa
:0402dc001a04000000
:020000040000fa
:0402e0001a040000fc
:020000040000fa
:0402e4001a040000f8
:020000040000fa
:0402e8001a040000f4
:020000040000fa
:0402ec001a040000f0
:020000040000fa
:0402f0001a040000ec
:020000040000fa
:0402f4001a040000e8
:020000040000fa
:0402f8001a040000e4
:020000040000fa
:0402fc001a040000e0
:020000040000fa
:040300001a040000db
:020000040000fa
:040304001a040000d7
:020000040000fa
:040308001a040000d3
:020000040000fa
:04030c001a040000cf
:020000040000fa
:040310001a040000cb
:020000040000fa
:040314001a040000c7
:020000040000fa
:040318001a040000c3
:020000040000fa
:04031c001a040000bf
:020000040000fa
:040320001a040000bb
:020000040000fa
:040324001a040000b7
:020000040000fa
:040328001a040000b3
:020000040000fa
:04032c001a040000af
:020000040000fa
:040330001a040000ab
:020000040000fa
:040334001a040000a7
:020000040000fa
:040338001a040000a3
:020000040000fa
:04033c001a0400009f
:020000040000fa
:040340001a0400009b
:020000040000fa
:040344001a04000097
:020000040000fa
:040348001a04000093
:020000040000fa
:04034c001a0400008f
:020000040000fa
:040350001a0400008b
:020000040000fa
:040354001a04000087
:020000040000fa
:040358001a04000083
:020000040000fa
:04035c001a0400007f
:020000040000fa
:040360001a0400007b
:020000040000fa
:040364001a04000077
:020000040000fa
:040368001a04000073
:020000040000fa
:04036c001a0400006f
:020000040000fa
:040370001a0400006b
:020000040000fa
:040374001a04000067
:020000040000fa
:040378001a04000063
:020000040000fa
:04037c001a0400005f
:020000040000fa
:040380001a0400005b
:020000040000fa
:040384001a04000057
:020000040000fa
:040388001a04000053
:020000040000fa
:04038c001a0400004f
:020000040000fa
:040390001a0400004b
:020000040000fa
:040394001a04000047
:020000040000fa
:040398001a04000043
:020000040000fa
:04039c001a0400003f
:020000040000fa
:0403a0001a0400003b
:020000040000fa
:0403a4001a04000037
:020000040000fa
:0403a8001a04000033
:020000040000fa
:0403ac001a0400002f
:020000040000fa
:0403b0001a0400002b
:020000040000fa
:0403b4001a04000027
:020000040000fa
:0403b8001a04000023
:020000040000fa
:100400008f1922000eaf24000e01880000000000aa
:10041000000020000000e000020032000001200087
:100420002002880014000700460207000000e000d8
:1004300003003a004028200011002000020037008d
:100440000000200001002000810f70000100320038
:1004500014000700000020000000e000020032004d
:10046000000002000000000034fc02000000000058
:100470000040da000000fe004440a90000b825005a
:100480000000e000030032000020200090018800fe
:100490004440a800000006008a1f78008b1f7800e7
:1004a00000000600a1028800800478000000eb0034
:1004b0001f003700e284440054a0b4009905ba003c
:1004c000e284440054a0b4009906ba00e2844400d7
:1004d00054a0b4000006eb00476fde00fd07b20039
:1004e000ae018800636ce10003003a00eaff0700f8
:1004f0000000eb000e003700606ce10008003a00dd
:10050000004deb000a05e800020039003420ec0041
:100510000af0a0008b05e900f9ff3e000400370057
:100520006168e100010032000086eb000b0007006b
:1005300019c7ba001905ba000e04e00003003a001a
:100540000a00e000dbff3a0000000600fe07b200f0
:10055000ae0288008a047800f5ff37000cd0a300b3
:10056000e20f4d001c00390089027800354dba00b9
:100570000a05e800020039003420ec000af0a0006f
:100580008b05e9000f003200254dba000a05e8008e
:10059000020039003420ec000af0a0008b05e900cd
:1005a000080032000c00e0000600320015cdba0051
:1005b0000a05e800020039003420ec000af0a0002f
:1005c0008b05e9008984e80054a0b4000b00e0002a
:1005d000e2ff3a00000006009902ba00055d7800cb
:1005e0008b05e900f7ff3200c82ade00055d7800c0
:1005f0008b05e900f3ff32000c00e000f1ff320050
:1006000019ddba00eeff370000a0fe000a00fa0074
:100610009080a90050388000700060000000e00069
:100620003d00320098c8bf000004e00038003200ee
:10063000b0448000a144800082448000020f780012
:1006400011079800200798009e009000310798003d
:100650001e0078000000e0002b0032009e00900099
:100660002e0090008080400000102000808f5000fd
:1006700025003e003107a8008139800000002400d9
:10068000008060000000e000fbff3a000000eb008b
:1006900040079800170037003e00900000407800a7
:1006a00030e7b7003e009000000040001e00400010
:1006b0009080fb00104090000080fb004800dd00af
:1006c00000807000903988003e0090000000e80033
:1006d000300798008139800000002400008060000d
:1006e0000000e000fbff3a004e0090000000e80030
:1006f00040079800ae0090004e009000808f5000a0
:10070000e5ff3e003107a9009028ef009868ef0050
:100710000a87a9000887a9000080fa000080fe006f
:100720000040060000a0fe003200f8003400f8008f
:10073000881f780018002000a801880008202000e9
:10074000980188004f0478000000fa0020478000dc
:100750000000e800204788000a21ef008500a9007a
:100760000080fa003400f9003200f9000080fe0039
:10077000004006000000fa000080fa000040060079
:100780000000fa000080fa00004006000000fa00b5
:100790000080fa00004006003200f8003400f80043
:1007a000881f780018002000a80188000820200079
:1007b000980188004f0478000000fa000080fa00d9
:1007c0003400f9003200f900004006003200f80061
:1007d0003400f800881f780018002000a801880065
:1007e00008202000980188004f0478000000fa00db
:1007f0000080fa003400f9003200f90000400600e1
:100800003200f8003400f800881f7800180020003b
:10081000a801880008202000980188004f04780073
:100820000000fa000080fa003400f9003200f900fc
:10083000004006000000fa000000fe000080fa0000
:10084000004006000000fa008020a9000080fa00a5
:10085000004006000000fa008060a9000080fa0055
:10086000004006000000fa008040a9000080fa0065
:10087000004006000000fa008080a9000080fa0015
:1008800000400600809fbe00821f78003200f80002
:100890003400f80010002000a00188000020200093
:1008a000900188000000fa00916080008060800064
:1008b000808f500002003a009580a9001600370092
:1008c0008580a9000b00370080608000f10f2000b8
:1008d000810060006481400001c12000810041006e
:1008e000914078008180fb00211188000000e80021
:1008f00080608800111180000020200000806000ce
:100900000000e00004003a009160800080608000f8
:10091000808f5000ecff3a000080fa003400f900ac
:100920003200f9004f0178004f00be000040060081
:10093000809fbe00821f78000200fa00100037007e
:1009400030118000004f780071588000605880009e
:100950008080500000102000808f5000080032007e
:1009600070588000f10f20000101600001b12000eb
:10097000810041009e4878000000e800705888001f
:1009800010118000610060000000e000ecff3a0000
:100990008560a9000080fa004f0178004f00be007a
:1009a00000400600801f78000000fa00101180004f
:1009b000620060000000e000010032002222a90075
:1009c0008c20a9000080fa004f007800004006004b
:1009d000809fbe00829fbe00841f78000200fa0044
:1009e00080138000004f7800c113800000022000b7
:1009f000008060000000e0003e003a001e417800e8
:100a0000b18d200082487800c0138000640060002f
:100a10000000e00035003200b18d200091407800e8
:100a2000f0c4b30080cf50000d003a00dac8bf0018
:100a30000004a2000004e00005003200700d200058
:100a40009013880010c0b300dae8b7002700370021
:100a5000dcc8bf000080fb00901388002300370033
:100a6000dbc8bf008080fb00000f2000808060009a
:100a700000082000808f50001a003a00eec8bf0026
:100a80000004a2000004e0001300320010c0b30014
:100a9000dde8b700dec8bf008080fb00601c2100dd
:100aa00000804000104078000080fb009013880018
:100ab000dec8bf000080fb000080ea0000f0a70055
:100ac0000000ea000000ea004f00de00004078006d
:100ad000dee8b70005003700f00f20009013880013
:100ae00002003700f00f2000901388007782a800e2
:100af00055003700c0138000640060000000e00073
:100b000023003a00dbc8bf008080fb00000f2000fc
:100b10008080600000042000808f50000a003a00ae
:100b2000dbc8bf000080fb000000d100004078005f
:100b30000080fb00e7006000000c21000080400006
:100b40001e4878000f003700dbc8bf008080fb0024
:100b5000000f20008080600000082000808f50007f
:100b600008003a00ddc8bf000004e00005003200c4
:100b7000801c21001e487800dd68ef0010c0b30023
:100b8000eee8b7009e407800c48d2000014a78004e
:100b90007782a80060868000f10720008101600054
:100ba000c11380008140780044c2b30004c16000da
:100bb000e10c210081804100824878000000e800bb
:100bc0006086880060868000f10720008101600057
:100bd000b28d200012417800e10c2100818041009b
:100be000824878000000e80060868800c01380001a
:100bf000640060000000e0000b00320060868000ae
:100c0000f10720008101600091138000014178000c
:100c1000e10c210081804100824878000000e8005a
:100c2000608688000800370060868000f107200099
:100c300001016000e10c2100810041009e48780024
:100c40000000e800608688008e80a9000080fa001d
:100c50004f0278004f01be004f00be00004006006a
:100c6000889fbe0080047800b08f80000000e00004
:100c700004003a000e0007000084eb000000e000d2
:100c800008003500b88f80000900e0000500320040
:100c900009004400060007000000e00001003d00dc
:100ca0000084eb00080078004f04be00000006003e
:100cb000800078000100e00003003a00801f21005e
:100cc000b08f8800000005000080eb008219220030
:100cd000828f500002003e00b18f88000000eb00c0
:100ce000000006000a00fa0020079800310798006b
:100cf00042079800be009000010f78000000eb0052
:100d000010079800080037001e0078001040780097
:100d10001e0fe80096090200010000001e0090006e
:100d20000000e800100798009e0090004e00900020
:100d3000808f5000f4ff39004e0090000080fa00d0
:100d400000000600000005000c00fa00889fbe00ad
:100d500000047800f0ff2700d0bf9f008004eb0064
:100d600099bf9f0088bf9f00a8bf9f00200c200054
:100d7000b0bf9f0078815700cfb0970070805700b8
:100d8000100007000fb89700094878008fb8970047
:100d9000088050004f04be000080fa0000000600ea
:100da000d0019000028151004240a90003003400ac
:100db00010017800014978000208e800010078007d
:100dc00000000600f6874700889fbe008a9fbe008d
:100dd0008c9fbe008e1f780000057800a1b79f0091
:100de000020778008004eb0090023700afb0970054
:100df0008100e800a1b79f0051c2b300814f5000ad
:100e000003003a00afb097000004eb001100370078
:100e1000ba0090000000fb000168a3000700320048
:100e200009017800800078000a007800dcff0700e4
:100e30000000e00005003a007c0237008a007800dc
:100e40008d020700e10f4000780232008904e800bb
:100e5000760237000100780031417800d3c2b30038
:100e6000834f51000c00320007003c00edc15100df
:100e7000834f51000a003200ebc14100834f510003
:100e80000d003a000800370003c3b300834f510040
:100e900009003a00060037000830a000edff3700d7
:100ea0000800a000ebff37000810a000e9ff3700a2
:100eb0000820a000e7ff37000818a3000100320057
:100ec0000800a1000838a300010032000820a1009a
:100ed0008200fb000103b100e98f50000c003e00ce
:100ee000000178008000eb006a08b900b201fb0045
:100ef0000303b10080804100020078009201fb00f2
:100f00000303b100e98f5100f7ff360006003700f8
:100f10008000eb00a3c2b300834f510002003a00ef
:100f2000ce0078000000e8008005eb00e2c2b300cc
:100f3000904f110009003a0008e0a0006441510000
:100f4000d04f110003003200000178000102780048
:100f500006003700ce0578000000e80000017800a8
:100f6000090037006a58b900808541000200780006
:100f7000b201fb000303b100e98f5100f9ff360015
:100f800084007800f5ff370032407800a2b79f0058
:100f9000c3c6b300834f5000250032000f003c0051
:100fa00032c6b300824f50008800320004003c007b
:100fb0000004e000220232006b4151000f003700b4
:100fc00042c6b300824f5000170032006541410015
:100fd000824f500094003a001300370032c7b3002c
:100fe000824f50001b00320007003c00644151005a
:100ff000824f5000100032000241e800824f500042
:1010000089003a000f00370052c7b300824f5000ea
:101010008a00320063414100824f500082003a0052
:10102000e0df9f0009003700e0df9f008500370008
:101030000840a000d4ff3700e0df9f000860a00058
:1010400080003700e0df9f000850a0000870a0007b
:101050007c003700e0df9f004e007800000678003b
:101060000000e00001003a000c1721000c0178009c
:101070000000eb00010037000000e800e2417800ca
:101080000304e000fcff3a00800678000b00e0005b
:10109000030032008d8f5500010031008b0678006f
:1010a0008005eb008d8f5000010036008d855000cb
:1010b000680464002a003a00110037003a009000ea
:1010c0000068a30007003200090178000102200037
:1010d0000a00780032ff07000000e00006003a0036
:1010e000060037008a00780000022000e2010700b5
:1010f000e10f4000010032008904e8008b05e9009f
:101100000b00e000edff3a008085eb001400370093
:101110003a0090000068a300090032000c0078003b
:10112000b000fb0000067800090178000a00780092
:101130001bff07000000e00008003a00080037002d
:101140008c0078003100fb00010678008a007800ee
:10115000c9010700e10f4000010032008904e800e6
:101160000d0078008006e9000000e000e8ff3a008a
:101170000800e000ad013200110037003a00900095
:101180000068a30007003200090178000102200076
:101190000a00780002ff07000000e00006003a00a5
:1011a000060037008a00780000022000b201070024
:1011b000e10f4000010032008904e8008b05e900de
:1011c0000b00e000edff3a00980137004e01780077
:1011d000cf91de00c81ade004818dd004812de009c
:1011e00004027000e4df9f000848a30008003200fa
:1011f0000404e00006003200e14f42000400320027
:10120000f4df9f0082e79f002d00200002003700de
:10121000f2df9f001d002000e2fd2f000f014100c2
:101220000206e80099ff3700e0df9f00ecfd2f0089
:101230000f0646001d00200094ff3700e0df9f00ee
:10124000080cb30008017800020cb20070006400c2
:101250000200e0000d003a000000e0000200320051
:101260004e06be00020037004e067800cfe6de00d4
:10127000e00f5600e08f5e000a003d003800b3002a
:1012800060061600e0861e00060037000000e00041
:10129000020032004e06be00020037004e06780003
:1012a0008006eb000b00e00005003a008c8576001c
:1012b0000bf0a7008b05ea008b05e900cf5dde008f
:1012c00088017800030cb200e3b79f0000042000ff
:1012d000808f51002300320003003c000300e00037
:1012e000080032002d003700000820006fb2970080
:1012f000800f52000d003200000c2000800f5200c1
:1013000026003a008217210010c0b300640141009a
:10131000b20f5600a28f5e001f0039000040e800a7
:10132000ea4f5000f9ff3a001b00370010c0b3002d
:101330000201200003002000820f5600838f5e0010
:1013400015003900441add00cc11de008301720063
:101350004411dd000040e800e84f5000f6ff3a007d
:101360000d00370010c0b3008200200003002000f1
:10137000820f5600838f5e0007003900431add009c
:10138000cd11de00830172004311dd000040e80052
:10139000eb4f5000f6ff3a00e0df9f006fd9970057
:1013a0000200fb008b0f500002003d00ebdf9f00ae
:1013b00003003700808f550001003d008005780054
:1013c0000100e0000300320063006400010032000d
:1013d0008100e90008e8a300050032008b8f50006f
:1013e000020034008b805000010037008000eb00c9
:1013f000efd997000300fb000002eb00d4b79f0079
:10140000808f50000200340000805000d0b79f0051
:101410000828a30040003200610164000818a300fe
:101420000f0032003a0090000068a300060032006e
:10143000b10220000200e000010032008180e800db
:10144000090178000d003700b00220000200e00022
:10145000010032000080e8008a0078000e003700aa
:101460000200e000100032003a0090000068a30083
:101470000700320009017800010220000a0078000c
:1014800047fe07000000e00006003a0006003700b3
:101490008a00780000022000f7000700e10f4000fa
:1014a000010032008904e8005fb097000000e0000e
:1014b0005a003200bcb79f00cdb79f00800678006d
:1014c0003a0090000068a30007003200090178008c
:1014d000010320000a00780031fe07000000e00050
:1014e00006003a00060037008a007800000320005a
:1014f000e1000700e10f4000010032008904e8002c
:101500008d06e900eeff3a00ddb79f003fb6970079
:10151000cfb6970041003700dfb197000300e0002d
:101520001a0032000838a30018003a00bcb79f0028
:10153000cdb79f00830678003a0090000068a300b2
:101540000700320009017800010220000a0078003b
:1015500013fe07000000e00006003a000600370016
:101560008a00780000022000c3000700e10f40005d
:10157000010032008904e8008d06e900eeff3a0020
:10158000ddb79f003fb69700cfb6970061016400ba
:101590000818a3000f0032003a0090000068a30072
:1015a00006003200b10220000200e000010032001b
:1015b0008180e800090178000d003700b0022000aa
:1015c0000200e000010032000080e8008a0078009c
:1015d0000e0037000200e000100032003a009000d8
:1015e0000068a30007003200090178000102200012
:1015f0000a007800eafd07000000e00006003a005b
:10160000060037008a007800000220009a000700d8
:10161000e10f4000010032008904e8000b03e900fb
:101620006330b90000017800b2b79f004233dd009b
:1016300080172100000343008e01780093b79f00bc
:1016400008077800060478005c0037008b05e90085
:10165000000420006fb29700800f52003800320063
:1016600003003c000400e000080032003e003700a8
:1016700000082000efb09700808f5000200032005b
:10168000000c2000808f500037003a000e48a30065
:10169000100032001802be000401be000c00be00a3
:1016a000f4b79f0085bf9f00de010700e0df9f00c9
:1016b0000000fb00cf80de007fb297008fba97005a
:1016c0000401be00e70107000006560081865e00a7
:1016d0000700370018017800110009000286d800c1
:1016e000a2002000110009000280d800e1df9f0065
:1016f0006fd997000243b000e2df9f001a00370065
:10170000f01521000e58a30001003200e014210062
:1017100081172100810054000c01be008100e90006
:10172000030033008301d1000281d300fbff3700a7
:10173000ef006100e0c07800e1df9f000a003700a1
:101740000c00be00bfb197008301e9000300330025
:101750008100d1000080d300fbff370067406000ac
:101760000043b000e0df9f00ba0090006fda9700fe
:101770000400fb000168a3000700320009017800a3
:10178000800078000a00780085fd07000000e00076
:1017900005003a00050037008a007800360007008f
:1017a000e10f4000010032008904e8003fb09700db
:1017b00063005000b0b79f00640454000b00e000c9
:1017c000a2ff3a000e0478001fb797000838a30064
:1017d00016003200dfb097000100e0001300340073
:1017e000010478003a0090000068a300070032006e
:1017f00009017800010220000a00780068fd070056
:101800000000e00006003a00060037008a00780079
:101810000002200018000700e10f40000100320024
:101820008904e8000804e900eeff3a002fb19700b0
:1018300012407800e0df9f000004e0006bfd3a00fa
:10184000090078004f0778004f06be004f05be0024
:101850004f04be006f01b100000006000000fa0056
:1018600068815700cfb89700c01a210055fd0700c6
:101870000080fa0000000600889fbe000104780086
:10188000b80090008084eb000118a3003a003200f9
:10189000180190000198a30002003a000200e00045
:1018a00035003a000190a0003104980080047800cf
:1018b000f90fb2000200e00002003a002800900098
:1018c000000c7800ea8f540005003a000178a3006c
:1018d00003003a0088007800d0002000e6ff0700ef
:1018e00018009000d8009000810f50000b003200cb
:1018f0000000e800100498001800780009487800fb
:10190000000ce80011c0b300001f2100014878005e
:10191000ea8f540018003a0005003700880078006c
:1019200009407800000107008004780012003700a9
:10193000380090000088a3000f00320018019000ca
:10194000a800900048009000e6fc07009800900076
:10195000810f500004003200380090000003b300f3
:10196000300498008084eb000000eb001004980025
:1019700028009000000c7800090078004f04be0099
:1019800000000600889fbe008a9fbe008c9fbe009c
:10199000611d2100b28e80000200e0000b003a00c1
:1019a00064814000b28e8800028f8800a1009800f8
:1019b000f18e8800214190000204a000a24098000e
:1019c000614190000204a000e240980067044000da
:1019d0004244de004244dd00f48e8000811f21007d
:1019e00089192200818454002d0020001100090073
:1019f0008d04d800800678000886e8000c064600b2
:101a00008001eb0002003700130020000b02780079
:101a1000a44090000108a300020032000a00370031
:101a2000120a780014017800a24090000108a30077
:101a3000fbff320088004200810f51000200390094
:101a40000800e00042003d00940578000b00a10072
:101a5000848f5500edff3e00e18f5100eaff3a0010
:101a60008d0f540002003600890f54001400390015
:101a70006141b8006148b900b4ff2f0005002000a3
:101a80000000520081805a00800f5100818f590060
:101a900002003500640544000a003700801f210061
:101aa000ba1922000005550008054500110009007b
:101ab0000985d8000980b9000005780001003700c9
:101ac0000c0578000a00780065fc0700e10f400073
:101ad00005003a00640544000a00780060fc070035
:101ae000e10f40002b003200018f80008008780059
:101af000018f8000e481400021419000830f50005d
:101b0000020032000204a000010037000204a1001c
:101b1000a2409800640555000a0540000a087800b4
:101b20000a8f8800611d2100010d7800028f80005e
:101b3000a24090000104a00021419800a040900024
:101b40000104a100214098008001eb00afff3700a5
:101b5000f18e8800810f5100070036001101be0090
:101b6000128f8800238f8800940878000041eb00d2
:101b7000f18e8000a2409800f38e8000030a780066
:101b8000a44090000104a00021429800640042009b
:101b9000010037000000eb004f06be004f05be00fd
:101ba0004f04be00000006000000e0000800320004
:101bb00064005000f18e8000810f50000100310060
:101bc000f08e8800a04090000104a1002140980000
:101bd00000000600889fbe008a9fbe000004be0071
:101be0000900e00007003a000000eb000800e000f8
:101bf0003600320008007800ebff07000000eb0021
:101c0000320037000800e00003003a0009007800c5
:101c10005cff07002d003700640054009005780039
:101c200068f897000008a30002003200080078005e
:101c3000ddff07000900780052ff070080047800ec
:101c40000000eb000900e00020003200888f540003
:101c50001b00320069bd97000905550042d5de0022
:101c600088855500c2ddde000a0178008b0f550023
:101c7000010036000b0178004211dd008800780079
:101c80000900780014000700888f54000e0031000e
:101c90004255dd000a854400880f55000a003600d1
:101ca0000804550042c4de004244dd0008844400bc
:101cb000108f8000218f8000008cbe000200370052
:101cc0000800780001003700090078004f05be00c9
:101cd0004f04be00000006008001780002003700bb
:101ce000b15978000201e9000200e000fcff3a006f
:101cf000000006008001780002003700815978005a
:101d00000201e9000200e000fcff3a0000000600ca
:101d1000800078003104e000feff3a000080ea0015
:101d200000804000000006000200fa00889fbe000c
:101d3000a0ff9f0001047800380090000068a30015
:101d400033003a00e200600005003a000003b300ef
:101d500030049800110498000080eb002e0037003a
:101d6000d80490000900e00006003a0012002000ac
:101d7000e680570048009000dafb0700190498003d
:101d800023003700a80090000100e00008003a009e
:101d9000311f210021049800010c7800210020004f
:101da00051049800110498000030a00030049800fd
:101db00018019000a800900048009000c9fb07009f
:101dc000280090008080eb0011049800aff8970085
:101dd00001487800000ce8002ff89700ea4f500007
:101de0000b003a00380090000088a3000800320081
:101df00018019000a800900048009000b9fb07006f
:101e00000000eb0010049800a8009000010c78007e
:101e1000aff897000100fb004f04be000080fa00fd
:101e2000000006006022b800060220000000d0007a
:101e30008180d2000482d2008582d2000000a000fe
:101e40000202520083825a00030031000202420063
:101e500083824a000000a1000603e900f3ff3a0074
:101e600000000600020ab900001bb9000200b80019
:0c1e7000810042008100430000000600d9
:020000040000fa
:101e7c0000000000200000007a00000016000000a6
:101e8c000574000001000000058a0000010000003c
:101e9c0009a00000010000000bcc000001000000b4
:101eac000af80000010000001124000002000000ec
:101ebc000d66000002000000049200000200000009
:101ecc0006a800000200000006be00000200000090
:101edc0007d40000020000000bea00000200000022
:101eec000516000003000000062c00000300000093
:101efc00054200000300000005580000030000002c
:101f0c000a6e0000030000000a9a000003000000a3
:101f1c000ac60000030000000af2000003000000e3
:101f2c000a1e0000040000000a4a00000400000021
:101f3c000a760000040000000aa200000400000061
:101f4c000ace0000040000000afa000004000000a1
:101f5c000726000005000000073c000005000000fb
:101f6c000b520000050000000b7e00000500000075
:101f7c000baa0000050000000bd6000005000000b5
:101f8c0012020000060000000d44000006000000d4
:101f9c000d700000060000000d9c00000600000003
:101fac000dc80000060000000cf400000600000044
:101fbc000b200000070000000e4c00000700000082
:101fcc000d7800000700000005a4000007000000c9
:101fdc000aba0000070000000de600000700000030
:101fec000b120000080000000f3e0000080000006b
:101ffc000d6a0000080000000e96000008000000aa
:10200c000cc20000080000000eee000008000000ea
:10201c000d1a0000090000000c4600000900000029
:10202c000b720000090000000d9e0000090000006a
:10203c000dca00000900000011f6000009000000a4
:10204c000c3800000a0000000d6400000a000000bb
:10205c000a9000000a00000006bc00000a00000004
:10206c0005d200000a00000006e800000a0000008b
:10207c000bfe00000a0000000a2a00000b00000002
:10208c00065600000b0000000a6c00000b0000005c
:10209c000b9800000b0000000ac400000b000000ad
:1020ac000bf000000b0000000b1c00000c000000eb
:1020bc00074800000c0000000b5e00000c00000044
:1020cc000b8a00000c00000005b600000c0000009c
:1020dc0005cc00000c0000000ae200000c0000001f
:1020ec00050e00000d000000112400000d00000082
:1020fc000b6600000d0000000b9200000d000000ac
:10210c000bbe00000d0000000bea00000d000000eb
:10211c00071600000e0000000a2c00000e00000044
:10212c00065800000e0000000b6e00000e000000b0
:10213c000b9a00000e0000000fc600000e000000fd
:10214c000bf200000e0000000b1e00000f00000040
:10215c00094a00000f000000000000000000000011
:10216c000000000000000000000000000000000063
:10217c000000000000000000000000000000000053
:10218c00000000000000000000000000000e000035
:10219c000e0e00000e0e00000e0e000004040000d7
:1021ac00000e00000e0e00000000000000000000f9
:1021bc000000000000000000000000000000000013
:1021cc0000000000ee000000ee000000ee00000039
:1021dc00ee000000ee000000000000000000000017
:1021ec0000000000000000000000000000000000e3
:1021fc0000000000000000000000000000000000d3
:10220c0000000000000000000000000000000000c2
:10221c00000000000000000000000000300300007f
:10222c003003000098010000ff070000ff070000ca
:10223c0098010000cc000000cc000000ff0700005b
:10224c00ff070000cc0000006600000066000000e4
:10225c000000000000000000000000000000000072
:10226c000000000000000000000000000000000062
:10227c00100000007c000000fe000000d7010000f0
:10228c0017000000170000003e000000fc000000da
:10229c00f0010000d0010000d7010000d7010000c0
:1022ac00fe0000007c000000100000001000000088
:1022bc000000000000000000000000000000000012
:1022cc000000000000000000000000000000000002
:1022dc0000000000003c000018000000660c00002c
:1022ec00006600000c00000066060000006600009e
:1022fc00060000003c03000000000000030000008a
:10230c00800100000080000079000000c0cc0000bb
:10231c0000c00000cc00000060cc00000060000099
:10232c00cc0000003078000000000000000000002d
:10233c000000000000000000000000000000000091
:10234c000000000000000000000000000000000081
:10235c00f0000000fc0300009c0300009c03000044
:10236c00b8010000f0000000f8000000fc0d0000b7
:10237c00ce0f00008e0700008e0f0000fc1f000027
:10238c00f808000000000000000000000000000041
:10239c00000000000000000000000000000e000023
:1023ac000e0e00000e0e00000000000000000000e9
:1023bc000000000000000000000000000000000011
:1023cc000000000000000000001800001c1c0000b1
:1023dc000c0e00000e0e00000e0e00000e0e000083
:1023ec000e0e00000c0c00001c1800000000000079
:1023fc0000000000000600000e0e00000c1c000087
:10240c001c1c00001c1c00001c1c00001c1c0000e0
:10241c000c0e00000e060000000000000000000082
:10242c00000c00002d3f00000c1e000033000000cb
:10243c000000000000000000000000000000000090
:10244c000000000000000000000000000000000080
:10245c000000000000000000000000000000000070
:10246c00700000007000000070000000fe0300000f
:10247c00fe030000fe03000070000000700000006e
:10248c0070000000000000000000000000000000d0
:10249c000000000000000000000000000000000030
:1024ac000000000000000000000000000000000020
:1024bc000000000000000000000e00000e0e0000e6
:1024cc00080c0000060000000000000000000000e6
:1024dc0000000000000000000000000000000000f0
:1024ec003e3e00003e000000000000000000000026
:1024fc0000000000000000000000000000000000d0
:10250c0000000000000000000000000000000000bf
:10251c00000e00000e0e0000000000000000000085
:10252c00000000000000000000180000180c000063
:10253c000c0c00000c0e0000060600000606000045
:10254c000303000000000000000000000000000079
:10255c00000000000000000000000000000000006f
:10256c0078000000fc000000cc000000ce01000050
:10257c00ce010000ce010000ce010000ce01000013
:10258c00ce010000ce010000cc000000fc000000d9
:10259c0078000000000000000000000000000000b7
:1025ac00000000000000000000000000000000001f
:1025bc00000000000000000060000000700000003f
:1025cc007c0000007e00000076000000720000001d
:1025dc00700000007000000070000000700000002f
:1025ec00700000007000000070000000000000008f
:1025fc0000000000000000000000000000000000cf
:10260c0000000000000000000000000000000000be
:10261c0078000000fc000000ce010000ce0100009c
:10262c00c0010000e0000000e000000070000000ad
:10263c0038000000380000001c000000fe01000003
:10264c00fe0100000000000000000000000000007f
:10265c00000000000000000000000000000000006e
:10266c00000000000000000078000000fc000000ea
:10267c00ce010000ce010000c0010000f0000000ff
:10268c00f0000000c0010000c0010000ce010000fd
:10269c00ce010000fc0000007800000000000000eb
:1026ac00000000000000000000000000000000001e
:1026bc00000000000000000000000000000000000e
:1026cc00e0000000f0000000f0000000f800000046
:1026dc00ec000000ec000000e6000000e30000004d
:1026ec00ff030000ff030000e0000000e00000001a
:1026fc00e0000000000000000000000000000000ee
:10270c0000000000000000000000000000000000bd
:10271c000000000000000000f8000000f8000000bd
:10272c001c0000000c0000007c000000fc000000fd
:10273c00ce010000c0010000c0010000c00100007b
:10274c00ce010000fc00000078000000000000003a
:10275c00000000000000000000000000000000006d
:10276c00000000000000000000000000000000005d
:10277c0070000000fc010000cc0100000e00000005
:10278c007e000000fe000000ce010000ce01000023
:10279c00ce010000ce010000cc010000fc000000c6
:1027ac0078000000000000000000000000000000a5
:1027bc00000000000000000000000000000000000d
:1027cc000000000000000000fe010000fe010000ff
:1027dc00c0010000e000000060000000700000007c
:1027ec003000000038000000380000001800000025
:1027fc001c0000001c0000001c0000000000000079
:10280c0000000000000000000000000000000000bc
:10281c0000000000000000000000000000000000ac
:10282c0078000000fc000000ce010000ce0100008a
:10283c00ce010000fc00000078000000cc0000007d
:10284c00ce010000ce010000ce010000fc00000013
:10285c0078000000000000000000000000000000f4
:10286c00000000000000000000000000000000005c
:10287c00000000000000000078000000fc000000d8
:10288c00ce000000ce010000ce010000ce01000001
:10289c00ce010000fc010000f8010000c0010000a6
:1028ac00ce000000fc00000038000000000000001a
:1028bc00000000000000000000000000000000000c
:1028cc000000000000000000000000001c1c0000c4
:1028dc001c00000000000000001c00001c1c00007c
:1028ec0000000000000000000000000000000000dc
:1028fc0000000000000000001c1c00001c00000078
:10290c0000000000001c00001c1c0000101800003f
:10291c000c0000000000000000000000000000009f
:10292c00000000000000000000000000000000009b
:10293c000002000080030000f0030000fc00000017
:10294c001e0000001e000000fc000000f003000050
:10295c0080030000000200000000000000000000e6
:10296c00000000000000000000000000000000005b
:10297c00000000000000000000000000000000004b
:10298c00000000000000000000000000fe0300003a
:10299c00fe030000fe030000000000000000000029
:1029ac00fe030000fe030000fe0300000000000018
:1029bc00000000000000000000000000000000000b
:1029cc0000000000000000000000000000000000fb
:1029dc0000000000000000000000000000000000eb
:1029ec00020000000e0000007e000000f801000054
:1029fc00c0030000c0030000f80100007e000000ce
:102a0c000e000000020000000000000000000000aa
:102a1c0000000000000000000000000000000000aa
:102a2c00000000000000000000000000000000009a
:102a3c00f8000000fc0100009e0300008e03000063
:102a4c00c0030000e0010000f00000007000000076
:102a5c00700000000000000070000000700000001a
:102a6c0070000000000000000000000000000000ea
:102a7c00000000000000000000000000000000004a
:102a8c00000000000000000000000000000000003a
:102a9c00008000001f000000e07f000000780000b4
:102aac00f000000098db000000cc0000df0100000b
:102abc006c9c0000017600009c010000368c00002c
:102acc00013600008c01000036ce000000360000fc
:102adc00ee000000e67f000000ec00001d0000008e
:102aec001c80000003780000e0010000f0ff0000f3
:102afc0000c000003f0000000000000000000000cb
:102b0c00000000000000000000000000f0010000c8
:102b1c00f0010000f0010000b8030000b803000051
:102b2c00b80300001c070000fc070000fc070000b5
:102b3c00fe0f00000e0e00000e0e0000071c000021
:102b4c000000000000000000000000000000000079
:102b5c000000000000000000000000000000000069
:102b6c0000000000fe030000fe070000fe0f000046
:102b7c000e0e00000e0e0000fe070000fe0300000b
:102b8c00fe0700000e0e00000e0e0000fe0f0000ef
:102b9c00fe070000fe030000000000000000000023
:102bac000000000000000000000000000000000019
:102bbc00000000000000000000000000e001000028
:102bcc00f8070000fc0700001c0f00000e060000b8
:102bdc000e0000000e0000000e0000000e060000ab
:102bec001c0f0000fc070000f8070000e0010000cb
:102bfc0000000000000000000000000000000000c9
:102c0c0000000000000000000000000000000000b8
:102c1c0000000000fe010000fe070000fe0700009f
:102c2c000e0f00000e0e00000e0e00000e0e000027
:102c3c000e0e00000e0e00000e0f0000fe0700002e
:102c4c00fe070000fe010000000000000000000074
:102c5c000000000000000000000000000000000068
:102c6c00000000000000000000000000fe07000053
:102c7c00fe070000fe0700000e0000000e00000022
:102c8c00fe070000fe070000fe0700000e0000001b
:102c9c000e000000fe070000fe070000fe0700000b
:102cac000000000000000000000000000000000018
:102cbc000000000000000000000000000000000008
:102ccc0000000000fe030000fe030000fe030000f5
:102cdc000e0000000e000000fe010000fe010000ce
:102cec00fe0100000e0000000e0000000e000000af
:102cfc000e0000000e0000000000000000000000ac
:102d0c0000000000000000000000000000000000b7
:102d1c00000000000000000000000000e0030000c4
:102d2c00f80f0000fc0f00001c1e00000e0c000031
:102d3c000e0000008e1f00008e1f00008e1f000072
:102d4c001c1c0000fc1f0000f80f0000e00300003a
:102d5c000000000000000000000000000000000067
:102d6c000000000000000000000000000000000057
:102d7c00000000000e0e00000e0e00000e0e0000f3
:102d8c000e0e00000e0e0000fe0f0000fe0f0000e5
:102d9c00fe0f00000e0e00000e0e00000e0e0000c6
:102dac000e0e00000e0e00000000000000000000df
:102dbc000000000000000000000000000000000007
:102dcc00000e00000e0e00000e0e00000e0e000095
:102ddc000e0e00000e0e00000e0e00000000000093
:102dec0000000000000000000000000000000000d7
:102dfc000000000000000000c0010000c001000045
:102e0c00c0010000c0010000c0010000c0010000b2
:102e1c00c0010000c0010000c7010000c701000094
:102e2c00ff010000fe0000007c000000000000001c
:102e3c000000000000000000000000000000000086
:102e4c000000000000000000000000000000000076
:102e5c000e0f00008e0700008e030000ce01000054
:102e6c00ee000000fe000000fe010000de0100008c
:102e7c008e0300008e0300000e0700000e0e0000f3
:102e8c000e0e00000000000000000000000000001a
:102e9c000000000000000000000000000000000026
:102eac0000000000000000000e0000000e000000fa
:102ebc000e0000000e0000000e0000000e000000ce
:102ecc000e0000000e0000000e0000000e000000be
:102edc00fe030000fe030000fe03000000000000e3
:102eec0000000000000000000000000000000000d6
:102efc0000000000000000000000000000000000c6
:102f0c001e3c00001e3c00003e3e00003e3e000009
:102f1c003e3e00006e3b00006e3b00006e3b00002e
:102f2c006e3b0000ce390000ce390000ce390000d7
:102f3c008e380000000000000000000000000000bf
:102f4c000000000000000000000000000000000075
:102f5c0000000000000000000e0e00001e0e00001d
:102f6c003e0e00003e0e00007e0e00006e0e0000b5
:102f7c00ee0e0000ce0e0000ce0f00008e0f0000f3
:102f8c008e0f00000e0f00000e0e0000000000005f
:102f9c000000000000000000000000000000000025
:102fac000000000000000000000000000000000015
:102fbc00e0010000f8070000fc0f00001c0e0000f0
:102fcc000e1c00000e1c00000e1c00000e1c00004d
:102fdc000e1c00001c0e0000fc0f0000f807000087
:102fec00e0010000000000000000000000000000f4
:102ffc0000000000000000000000000000000000c5
:10300c000000000000000000fe010000fe030000b4
:10301c00fe0700000e0700000e070000fe07000070
:10302c00fe030000fe0100000e0000000e00000078
:10303c000e0000000e0000000e000000000000005a
:10304c000000000000000000000000000000000074
:10305c000000000000000000000000000000000064
:10306c00f0030000f8070000fc0f00001c0e00002d
:10307c000e1c00000e1c00000e1c00008e1c00001c
:10308c00ce1d00009c1f0000fc0f0000f80f00007c
:10309c00f01d00000008000000000000000000000f
:1030ac000000000000000000000000000000000014
:1030bc000000000000000000fe030000fe070000fe
:1030cc00fe0f00000e0e00000e0e0000fe0f0000a2
:1030dc00fe070000fe010000ce0300008e0700007a
:1030ec000e0700000e0f00000e1e00000000000076
:1030fc0000000000000000000000000000000000c4
:10310c0000000000000000000000000000000000b3
:10311c00f8010000fc030000fe0700000e07000091
:10312c000e000000fe000000fc030000f007000091
:10313c00000700000e070000fe070000fc03000063
:10314c00f80100000000000000000000000000007a
:10315c000000000000000000000000000000000063
:10316c000000000000000000ff070000ff07000047
:10317c00ff070000700000007000000070000000ed
:10318c007000000070000000700000007000000073
:10319c0070000000700000007000000000000000d3
:1031ac000000000000000000000000000000000013
:1031bc000000000000000000000000000000000003
:1031cc000e0e00000e0e00000e0e00000e0e000083
:1031dc000e0e00000e0e00000e0e00000e0e000073
:1031ec000e0e00001e0f0000fc070000fc07000084
:1031fc00f0010000000000000000000000000000d2
:10320c0000000000000000000000000000000000b2
:10321c000000000000000000071c0000071c00005c
:10322c000e0e00000e0e00000e0e00001c0700001b
:10323c001c070000b8030000b8030000b80300002e
:10324c00f0010000f0010000f0010000000000009f
:10325c000000000000000000000000000000000062
:10326c000000000000000000000000000000000052
:10327c00000000000000000000870000c3010000f7
:10328c0087c3000001c70000c7010000cee60000a4
:10329c0000ce0000e6000000eeee000000ee0000a4
:1032ac00ee0000006eec0000006e0000ec00000070
:1032bc007c7c0000007c00007c0000003c7800005e
:1032cc00003c00007800000000000000000000003e
:1032dc0000000000000000000000000000000000e2
:1032ec0000000000000000000000000000000000d2
:1032fc00000000000e0700000e0700009c030000f9
:10330c0098010000f8010000f000000070000000bf
:10331c00f0000000f8010000980100009c03000080
:10332c000e0700000e070000000000000000000067
:10333c000000000000000000000000000000000081
:10334c000000000000000000000000000e0e000055
:10335c000e0e00001c070000b8030000b8030000ac
:10336c00f0010000f0010000e0000000e0000000af
:10337c00e0000000e0000000e0000000e0000000c1
:10338c000000000000000000000000000000000031
:10339c000000000000000000000000000000000021
:1033ac0000000000fe030000fe030000fe0300000e
:1033bc00c0010000e0000000700000007800000078
:1033cc00380000001c0000000e000000ff0300008d
:1033dc00ff030000ff0300000000000000000000dd
:1033ec0000000000000000000000000000000000d1
:1033fc00003e00003e3e00000e0e00000e0e0000cf
:10340c000e0e00000e0e00000e0e00000e3e000010
:10341c003e3e000000000000000000000003000021
:10342c000306000006060000060e00000c0c00004f
:10343c000c0c000018180000000000000000000038
:10344c000000000000000000001f00001f1f000013
:10345c001c1c00001c1c00001c1c00001c1c000080
:10346c001c1c00001c1f00001f1f0000000000009f
:10347c000000000000000000000000000000000040
:10348c007000000070000000f8000000d800000080
:10349c00dc0100008c0100008e0300000000000025
:1034ac000000000000000000000000000000000010
:1034bc000000000000000000000000000000000000
:1034cc0000000000000000000000000000000000f0
:1034dc0000000000000000000000000000000000e0
:1034ec0000000000000000000000000000000000d0
:1034fc0000000000000000000000000000000000c0
:10350c0000000000000000000000000000000000af
:10351c0000000000ff030000ff030000000000009b
:10352c000000000000070000060c00000000000076
:10353c00000000000000000000000000000000007f
:10354c00000000000000000000000000000000006f
:10355c00000000000000000000000000000000005f
:10356c000000000000000000f8000000fc0100005a
:10357c00c6010000e0010000f8010000dc010000c1
:10358c00ce010000ce010000fe010000bc030000d3
:10359c00000000000000000000000000000000001f
:1035ac00000000000000000000000000000000000f
:1035bc00000000000e0000000e0000000e000000d5
:1035cc00ee000000fe010000de0300008e03000090
:1035dc008e0300008e0300008e030000de0300004b
:1035ec00fe010000ee0000000000000000000000e2
:1035fc0000000000000000000000000000000000bf
:10360c0000000000000000000000000000000000ae
:10361c00000000000000000078000000fc0000002a
:10362c00de0100008e0000000e0000000e00000005
:10363c008e000000de010000fc000000780000009d
:10364c00000000000000000000000000000000006e
:10365c00000000000000000000000000000000005e
:10366c0000000000800300008003000080030000c5
:10367c00b8030000fc030000de0300008e03000012
:10368c008e0300008e0300008e030000de0300009a
:10369c00fc030000b8030000000000000000000064
:1036ac00000000000000000000000000000000000e
:1036bc0000000000000000000000000000000000fe
:1036cc000000000000000000f8000000fc010000f9
:1036dc008e0300008e030000fe030000fe030000ba
:1036ec000e0000008e030000fc010000f80000003a
:1036fc0000000000000000000000000000000000be
:10370c000000000000000000007c00007e0e0000a5
:10371c003f3f00000e0e00000e0e00000e0e0000cb
:10372c000e0e000000000000000000000000000071
:10373c00000000000000000000000000000000007d
:10374c00000000000000000000000000b8030000b2
:10375c00fc030000de0300008e0300008e0300005b
:10376c008e0300008e030000de030000fc0300004b
:10377c00b8030000800300008e030000fe0100006f
:10378c00fc00000000000000000000000000000031
:10379c0000000000000000000e0000000e00000001
:1037ac000e000000ee010000fe0300009e0300006e
:1037bc008e0300008e0300008e0300008e030000b9
:1037cc008e0300008e0300008e030000000000003a
:1037dc0000000000000000000000000000000000dd
:1037ec0000000000000e00000e0000000e0e000095
:1037fc000e0e00000e0e00000e0e00000e0e00004d
:10380c0000000000000000000000000000000000ac
:10381c00001c00001c0000001c1c00001c1c0000f4
:10382c001c1c00001c1c00001c1c00001c1c0000ac
:10383c001f0f00000000000000000000000000004e
:10384c0000000000000000000e0000000e00000050
:10385c000e0000008e030000ce010000ee00000000
:10386c007e0000007e000000fe000000ee00000064
:10387c00ce010000ce0100008e030000000000000d
:10388c00000000000000000000000000000000002c
:10389c0000000000000e00000e0e00000e0e0000d6
:1038ac000e0e00000e0e00000e0e00000e0e00009c
:1038bc0000000000000000000000000000000000fc
:1038cc0000000000000000000000000000000000ec
:1038dc0000000000000000000000000000000000dc
:1038ec000000000000000000ee79000000fe000067
:1038fc00ff0000009ee70000008e0000e3000000c7
:10390c008ee30000008e0000e30000008ee3000058
:10391c00008e0000e30000008ee30000008e00002b
:10392c00e3000000000000000000000000000000a8
:10393c00000000000000000000000000000000007b
:10394c00000000000000000000000000000000006b
:10395c00000000000000000000000000ee0100006c
:10396c00fe0300009e0300008e0300008e03000087
:10397c008e0300008e0300008e0300008e030000f7
:10398c008e0300000000000000000000000000009a
:10399c00000000000000000000000000000000001b
:1039ac00000000000000000000000000000000000b
:1039bc0000000000f8000000fc010000de03000025
:1039cc008e0300008e0300008e0300008e030000a7
:1039dc00de030000fc010000f80000000000000005
:1039ec0000000000000000000000000000000000cb
:1039fc0000000000000000000000000000000000bb
:103a0c00000000000000000000000000ee000000bc
:103a1c00fe010000de0300008e0300008e03000098
:103a2c008e0300008e030000de030000fe01000088
:103a3c00ee0000000e0000000e0000000e00000062
:103a4c000e0000000000000000000000000000005c
:103a5c00000000000000000000000000000000005a
:103a6c0000000000b8030000fc030000de030000af
:103a7c008e0300008e0300008e0300008e030000f6
:103a8c00de030000fc030000b8030000800300000c
:103a9c008003000080030000800300000000000091
:103aac000000000000000000000000006e7e00001e
:103abc001e0e00000e0e00000e0e00000e0e00007a
:103acc0000000000000000000000000000000000ea
:103adc0000000000000000000000000000000000da
:103aec000000000000000000fc000000fe010000cf
:103afc00ce0100001e0000007c000000f800000059
:103b0c00e0010000ce010000fe010000fc000000fe
:103b1c000000000000000000000000000000000099
:103b2c000000000000000000000c00000e0e000061
:103b3c003f3f00000e0e00000e0e00000e0e0000a7
:103b4c003e3c0000000000000000000000000000ef
:103b5c000000000000000000000000000000000059
:103b6c000000000000000000000000008e030000b8
:103b7c008e0300008e0300008e0300008e030000f5
:103b8c008e0300008e030000ce030000fe03000035
:103b9c00bc0300000000000000000000000000005a
:103bac000000000000000000000000000000000009
:103bbc0000000000000000000000000000000000f9
:103bcc00000000008e0300008e0300008e03000036
:103bdc00dc010000dc010000d8000000f80000004f
:103bec00f8000000700000007000000000000000f1
:103bfc0000000000000000000000000000000000b9
:103c0c0000000000000000000000000000000000a8
:103c1c00000000000000000000000000c771000060
:103c2c00c7710000c6310000ee3b00006e3b000087
:103c3c006c1b00007c1f00003c1e0000380e0000b6
:103c4c00380e000000000000000000000000000022
:103c5c000000000000000000000000000000000058
:103c6c000000000000000000000000000000000048
:103c7c00000000008e030000dc010000dc010000ed
:103c8c00f80000007000000070000000f800000058
:103c9c00dc010000dc0100008e03000000000000cd
:103cac000000000000000000000000000000000008
:103cbc0000000000000000000000000000000000f8
:103ccc0000000000000000000000000007070000da
:103cdc00070700008e0300008e0300008c0100001b
:103cec00dc010000d8010000f8000000f800000022
:103cfc007000000070000000380000003e00000062
:103d0c001e00000000000000000000000000000089
:103d1c000000000000000000000000000000000097
:103d2c0000000000fe000000fe000000e0000000ab
:103d3c007000000038000000380000001c0000007b
:103d4c000e000000fe000000fe000000000000005d
:103d5c000000000000000000000000000000000057
:103d6c00200000003b0000000d0000000378000064
:103d7c000000000003850000000000000492000019
:103d8c0000000000069f00000000000006ac0000d0
:103d9c000000000009b900000000000007d300007b
:103dac000000000002e000000000000003ed000035
:103dbc000000000003fa00000000000004070000ef
:103dcc0001000000061400000100000003210000a7
:103ddc0001000000032e000001000000033b000066
:103dec00010000000348000001000000065500001f
:103dfc00010000000662000001000000066f0000d8
:103e0c0001000000067c0000010000000689000093
:103e1c0001000000069600000100000006a300004f
:103e2c000100000006b000000100000006bd00000b
:103e3c000100000006ca00000100000003d70000ca
:103e4c000100000003e4000001000000000000007d
:103e5c000000000000000000000000000000000056
:103e6c000000000000000000000000000002000044
:103e7c00020200000202000000020000000000002c
:103e8c000000000000000000050500000500000017
:103e9c000000000000000000000000000000000016
:103eac00001400000a1f00000a1f00000505000096
:103ebc000000000000000000000000000e150000d3
:103ecc00070e0000141500000e0400000000000096
:103edc000000000000000000000000000044000092
:103eec00002a0000002a00000054000000b000006e
:103efc0000a80000004800000000000000000000c6
:103f0c000000000000000000001c0000120c00006b
:103f1c0006690000316e0000000000000000000087
:103f2c000000000001010000010000000000000082
:103f3c000000000000000000000000000004000071
:103f4c000201000001010000010100000204000058
:103f5c00000000000000000001020000040400004a
:103f6c000404000004020000010000000000000036
:103f7c000007000002050000000000000000000027
:103f8c000000000000000000000000000004000021
:103f9c00041f0000040400000000000000000000ea
:103fac000000000000000000000000000000000005
:103fbc0000020000020000000000000000000000f1
:103fcc0000000000000000000300000000000000e2
:103fdc0000000000000000000000000000000000d5
:103fec0000000000000200000000000000000000c3
:103ffc0000000000040400000202000002010000a6
:10400c00010000000000000000000000000e000095
:10401c001111000011110000110e00000000000031
:10402c000000000000000000080c00000a0800005e
:10403c00080800000800000000000000000000005c
:10404c00000e00001110000008040000021f000008
:10405c000000000000000000000000000e11000035
:10406c00100c0000101100000e00000000000000f9
:10407c00000000000018000014120000113f0000a6
:10408c001010000000000000000000000000000004
:10409c001e0200000f110000101100000e000000a5
:1040ac000000000000000000000e0000110f0000d6
:1040bc0011110000110e00000000000000000000b3
:1040cc00000000001f0800000804000004020000ab
:1040dc00020000000000000000000000000e0000c4
:1040ec00111100000e110000110e00000000000064
:1040fc0000000000000000000e1100001111000073
:10410c001e1100000e000000000000000000000066
:10411c00000000000002000000000000000200008f
:10412c000000000000000000000000000000000083
:10413c00020000000000000002020000000000006d
:10414c0000000000200000007a0000000f000000ba
:10415c000374000001000000038300000100000054
:10416c00049200000100000007a100000100000003
:10417c0005b00000010000000bbf000001000000b2
:10418c0007dd00000100000002ec0000010000004f
:10419c0003fb000001000000030a00000200000005
:1041ac0004190000020000000628000002000000b4
:1041bc00033700000200000003460000020000006c
:1041cc00035500000200000004640000020000001f
:1041dc0005730000020000000582000002000000d0
:1041ec00059100000200000005a000000200000084
:1041fc0005af00000200000005be00000200000038
:10420c0005cd00000200000005dc000002000000eb
:10421c0005eb00000200000005fa0000020000009f
:10422c000309000003000000031800000300000055
:10423c000627000003000000063600000300000003
:10424c0006450000030000000554000003000000b8
:10425c000a63000003000000078100000300000057
:10426c000790000003000000089f000003000000fe
:10427c0007ae00000300000007bd000003000000b3
:10428c0006cc00000300000008db00000300000067
:10429c0008ea00000300000003f90000030000001e
:1042ac0005080000040000000717000004000000cf
:1042bc000526000004000000093500000400000081
:1042cc000853000004000000086200000400000015
:1042dc0007710000040000000880000004000000ca
:1042ec00078f000004000000079e0000040000007f
:1042fc0005ad00000400000008bc00000400000034
:10430c0007cb00000400000009da000004000000e4
:10431c0006f800000400000007070000050000007c
:10432c000516000005000000032500000500000034
:10433c0003340000050000000343000005000000ea
:10434c00055200000500000005610000050000009a
:10435c000370000005000000057f00000500000050
:10436c00058e000005000000059d00000500000002
:10437c0005ac00000500000005bb000005000000b6
:10438c0003ca00000500000005d90000050000006c
:10439c0005e800000500000002f700000500000021
:1043ac0002060000060000000515000006000000d3
:1043bc000224000006000000083300000600000084
:1043cc000542000006000000055100000600000038
:1043dc000560000006000000056f000006000000ec
:1043ec00037e000006000000058d000006000000a2
:1043fc00039c00000600000005ab00000600000056
:10440c0006ba00000600000008c900000600000003
:10441c0006d800000600000006e7000006000000b9
:10442c0005f600000600000000000000000000007f
:10443c000000000000000000000000000000000070
:10444c00000000000000000000000000020200005c
:10445c000202000002020000000000000200000046
:10446c000000000000000000000500000505000031
:10447c000000000000000000000000000000000030
:10448c00000000000000000024240000247f000035
:10449c00127f000012120000120000000000000049
:1044ac0000000000040e000015050000050e0000c1
:1044bc0014150000150e00000400000000000000a0
:1044cc000000000000000000008600000049000011
:1044dc00004900000029000000a600000150000067
:1044ec0002480000024800000284000001000000a5
:1044fc0000000000000000000000000000000000b0
:10450c0018240000241400000c5200006262000009
:10451c005c00000000000000000000000001000032
:10452c00010100000000000000000000000000007d
:10453c000000000000000000000000000404000067
:10454c00020200000202000002020000020400004d
:10455c000400000000000000000100000102000047
:10456c000202000002020000020200000101000031
:10457c00000000000000000002070000020500001f
:10458c00000000000000000000000000000000001f
:10459c000000000000000000000000000404000007
:1045ac001f040000040000000000000000000000d8
:1045bc0000000000000000000000000000000000ef
:1045cc0000000000020200000100000000000000da
:1045dc0000000000000000000000000007000000c8
:1045ec0000000000000000000000000000000000bf
:1045fc0000000000000000000000000000000000af
:10460c000200000000000000000000000004000098
:10461c00040400000202000002020000010100007c
:10462c000000000000000000000600000909000066
:10463c000909000009090000090900000600000032
:10464c00000000000000000004060000050400004b
:10465c000404000004040000040400000000000036
:10466c000000000000060000090900000808000016
:10467c0004060000020100000f0000000000000012
:10468c0000000000060900000808000006080000f1
:10469c0008080000090600000000000000000000ef
:1046ac00000800000c0c00000a0a00000a090000b7
:1046bc001f080000080000000000000000000000bf
:1046cc000e020000010700000908000008080000a5
:1046dc0009060000000000000000000000060000b9
:1046ec0009010000010500000b0900000909000088
:1046fc000600000000000000000000000f08000091
:10470c000404000004040000020200000202000085
:10471c000000000000000000000600000909000075
:10472c000906000009090000090900000600000044
:10473c00000000000000000006090000090900004c
:10474c000d0a000008080000090600000000000027
:10475c00000000000000000000000000000200004b
:10476c00000000000000000002000000000000003b
:10477c00000000000000000000000000020000002b
:10478c000000000000020000020100000000000018
:10479c000000000000000000001000000e010000ee
:1047ac000e100000000000000000000000000000df
:1047bc0000000000000000001f000000001f0000af
:1047cc0000000000000000000000000000000000dd
:1047dc0000000000000100000e1000000e0100009f
:1047ec00000000000000000000000000000e0000af
:1047fc001110000010080000040400000004000068
:10480c00000000000000000000000000000000009c
:10481c000078000000840000000200000159000034
:10482c0001650000012500000125000001250000a4
:10483c0001d9000000020000018400000078000093
:10484c000000000000000000081400001414000018
:10485c00223e000022410000410000000000000048
:10486c0000000000001e000022220000221e00009a
:10487c0022220000221e00000000000000000000a8
:10488c000000000038440000420200000202000058
:10489c00424400003800000000000000000000004e
:1048ac00000e000012220000222200002222000032
:1048bc00120e0000000000000000000000000000cc
:1048cc003e020000020200003e0200000202000054
:1048dc003e0000000000000000000000003e000050
:1048ec0002020000021e0000020200000202000090
:1048fc000000000000000000000000003844000030
:10490c0042020000724200004244000038000000e5
:10491c0000000000000000000042000042420000c5
:10492c00427e0000424200004242000000000000b3
:10493c000000000000000000020200000202000063
:10494c000202000002020000020000000000000051
:10495c000000000000080000080800000808000023
:10496c00080900000906000000000000000000001b
:10497c0000000000221200000a0a00000e0a0000cb
:10498c0012120000220000000000000000000000d5
:10499c0000020000020200000202000002020000fd
:1049ac00021e0000000000000000000000000000db
:1049bc00000000000082000000c6000000c60000dd
:1049cc0000c6000000aa000000aa000000aa000017
:1049dc0000aa00000092000000000000000000008f
:1049ec000000000000000000000000004246000033
:1049fc00464a00004a520000626200004200000079
:104a0c00000000000000000000180000244200001c
:104a1c004242000042420000241800000000000046
:104a2c0000000000000000001e22000022220000f6
:104a3c001e02000002020000020000000000000044
:104a4c000000000000180000244200004242000058
:104a5c0042420000345800004000000000000000fa
:104a6c00000000001e220000222200001e12000086
:104a7c0022220000420000000000000000000000a4
:104a8c00001c000022220000021c0000202200005a
:104a9c00221c0000000000000000000000000000cc
:104aac001f040000040400000404000004040000bf
:104abc0004000000000000000000000000420000a4
:104acc004242000042420000424200002418000012
:104adc000000000000000000000000004141000048
:104aec002222000022140000141400000800000010
:104afc0000000000000000000000000000000000aa
:104b0c0011010000290100002a010000aa00000088
:104b1c00aa000000aa000000aa000000aa000000e1
:104b2c004400000000000000000000000000000035
:104b3c000000000000210000121200000c08000010
:104b4c000c12000012210000000000000000000008
:104b5c0000000000412200002214000008080000a0
:104b6c000808000008000000000000000000000021
:104b7c00001f0000100800000804000002020000e2
:104b8c00011f0000000000000000000000000000f9
:104b9c0006020000020200000202000002020000f5
:104bac0002020000060000000000000000010000ee
:104bbc0001020000020200000202000004040000d6
:104bcc0000000000000000000000000003020000d4
:104bdc0002020000020200000202000002020000b9
:104bec000300000000000000000400000a0a00009e
:104bfc000a1100000000000000000000000000008e
:104c0c000000000000000000000000000000000098
:104c1c000000000000000000000000001f00000069
:104c2c000000000000010000020000000000000075
:104c3c000000000000000000000000000000000068
:104c4c00000000000000000000070000080e00003b
:104c5c00090900000e000000000000000000000028
:104c6c000001000001010000050b00000909000013
:104c7c000b05000000000000000000000000000018
:104c8c0000000000000600000901000001090000fe
:104c9c0006000000000000000000000000080000fa
:104cac00080800000a0d0000090900000d0a0000a8
:104cbc0000000000000000000000000000000000e8
:104ccc0000060000090f00000109000006000000aa
:104cdc0000000000000000000006000002020000be
:104cec0007020000020200000202000000000000a7
:104cfc00000000000000000000000000000a00009e
:104d0c000d090000090d00000a0800000700000052
:104d1c00000000000001000001010000050b000074
:104d2c000909000009090000000000000000000053
:104d3c000000000001000000000100000101000063
:104d4c000101000001000000000000000000000054
:104d5c00000200000000000002020000020200003d
:104d6c00020200000203000000000000000000002e
:104d7c000101000001090000050300000509000005
:104d8c00090000000000000000000000000100000d
:104d9c0001010000010100000101000001010000ff
:104dac0000000000000000000000000000000000f7
:104dbc00002500005b490000494900004900000043
:104dcc0000000000000000000000000000000000d7
:104ddc00050b000009090000090900000000000093
:104dec0000000000000000000000000000060000b1
:104dfc00090900000909000006000000000000007d
:104e0c00000000000000000000000000050b000086
:104e1c00090900000b050000010100000000000062
:104e2c000000000000000000000a00000d09000056
:104e3c00090d00000a080000080000000000000036
:104e4c00000000000000000005030000010100004c
:104e5c000101000000000000000000000000000044
:104e6c000000000000060000090200000409000018
:104e7c000600000000000000000000000000000020
:104e8c0002020000070200000202000002060000fd
:104e9c000000000000000000000000000000000006
:104eac000009000009090000090d00000a000000bb
:104ebc0000000000000000000000000000000000e6
:104ecc00111100000a0a00000a0400000000000092
:104edc00000000000000000000000000004900007d
:104eec005555000055550000220000000000000040
:104efc00000000000000000000000000110a00008b
:104f0c00040400000a110000000000000000000072
:104f1c000000000000000000001100000a0a000060
:104f2c000a0400000404000002000000000000005d
:104f3c0000000000000000000f0800000402000048
:104f4c00010f000000000000000000000000000045
:104f5c00200000007a000000110000000474000022
:104f6c00010000000485000001000000079600000d
:104f7c000100000008a700000100000008b80000b4
:104f8c00010000000ac90000010000000aeb00004b
:104f9c0001000000030d000002000000051e0000cf
:104fac0002000000052f0000020000000540000078
:104fbc000200000008510000020000000462000022
:104fcc0002000000057300000200000004840000d1
:104fdc0002000000049500000200000008a600007a
:104fec000200000008b700000200000008c8000022
:104ffc000200000008d900000200000008ea0000ce
:10500c000200000008fb000002000000080c000079
:10501c0003000000081d000003000000082e000023
:10502c0003000000083f00000300000004500000d3
:10503c00030000000461000003000000087200007f
:10504c000300000008830000030000000894000027
:10505c000300000009a50000030000000ec70000bb
:10506c000300000009e90000030000000a0b000027
:10507c00040000000a2d0000040000000a4f00008c
:10508c0004000000097100000400000009930000f6
:10509c00040000000bb50000040000000ad700005b
:1050ac000400000004f9000004000000080a0000dd
:1050bc00050000000a1b000005000000083d000070
:1050cc00050000000d4e0000050000000a700000f5
:1050dc00050000000b9200000500000009b4000060
:1050ec00050000000bd60000050000000af80000c7
:1050fc0005000000091a000006000000083c000032
:10510c00060000000a4d000006000000096f0000b8
:10511c00060000000d9100000600000009b300001d
:10512c00060000000ad500000600000008f7000089
:10513c00060000000508000007000000041900002c
:10514c0007000000052a000007000000083b0000d3
:10515c0007000000084c000007000000055d00007f
:10516c0007000000086e000007000000097f000027
:10517c000700000008a100000700000009b20000b1
:10518c000700000009d400000700000005f600002d
:10519c0007000000090700000800000009290000b2
:1051ac0008000000044b000008000000045c000034
:1051bc0008000000086d000008000000047e0000dc
:1051cc00080000000c8f00000800000009b100006e
:1051dc000800000009d300000800000009f50000d9
:1051ec000800000009170000090000000639000043
:1051fc0009000000084a000009000000055b0000df
:10520c0009000000096c000009000000098e000074
:10521c00090000000bb000000900000008d20000db
:10522c000900000007e300000900000007f400007b
:10523c000900000000000000000000000000000059
:10524c000000000000000000000000000000000052
:10525c00000000000000000000000000000600003c
:10526c000606000006060000060600000006000008
:10527c00060000000000000000000000000000001c
:10528c00363600003636000000000000000000003a
:10529c000000000000000000000000000000000002
:1052ac0000480000486c00007e240000247e0000b2
:1052bc0012120000120000000000000000000000ac
:1052cc00000800001c3e00006b0b00001e78000064
:1052dc00686b00003f1e000008000000000000008a
:1052ec00000000000000000000000000004e000064
:1052fc00004a0000004a0000002a0000002e0000b6
:10530c0000d00000015000000150000001480000d6
:10531c0001c80000010000000000000000000000b7
:10532c000000000000000000000000000000000071
:10533c000078000000cc000000cc000000780000d9
:10534c0000380000007c00000066000001c6000070
:10535c0001c60000017c00000300000000000000fa
:10536c00000000000000000000000000000600002b
:10537c00060600000600000000000000000000000f
:10538c000000000000000000000000000000000011
